###############################################################################
#
# IAR ELF Linker V8.32.2.178/W32 for ARM                  18/Jan/2019  01:24:50
# Copyright 2007-2018 IAR Systems AB.
#
#    Output file  =  
#        D:\ESSEK_WORKSPACES\bsd17.1_B\evb_emb\hxcard\Evb\cardApp\iar\bin\cardApp.out
#    Map file     =  
#        D:\ESSEK_WORKSPACES\bsd17.1_B\evb_emb\hxcard\Evb\cardApp\iar\bin\cardApp.map
#    Command line =  
#        -f C:\Users\W7\AppData\Local\Temp\EWB726.tmp
#        (D:\ESSEK_WORKSPACES\bsd17.1_B\evb_emb\hxcard\Evb\cardApp\iar\bin\am_util_delay.o
#        D:\ESSEK_WORKSPACES\bsd17.1_B\evb_emb\hxcard\Evb\cardApp\iar\bin\am_util_faultisr.o
#        D:\ESSEK_WORKSPACES\bsd17.1_B\evb_emb\hxcard\Evb\cardApp\iar\bin\am_util_id.o
#        D:\ESSEK_WORKSPACES\bsd17.1_B\evb_emb\hxcard\Evb\cardApp\iar\bin\am_util_stdio.o
#        D:\ESSEK_WORKSPACES\bsd17.1_B\evb_emb\hxcard\Evb\cardApp\iar\bin\cardApp.o
#        D:\ESSEK_WORKSPACES\bsd17.1_B\evb_emb\hxcard\Evb\cardApp\iar\bin\hxsc_crypto.o
#        D:\ESSEK_WORKSPACES\bsd17.1_B\evb_emb\hxcard\Evb\cardApp\iar\bin\hxsc_debug.o
#        D:\ESSEK_WORKSPACES\bsd17.1_B\evb_emb\hxcard\Evb\cardApp\iar\bin\hxsc_memmgr.o
#        D:\ESSEK_WORKSPACES\bsd17.1_B\evb_emb\hxcard\Evb\cardApp\iar\bin\startup_iar.o
#        --no_out_extension -o
#        D:\ESSEK_WORKSPACES\bsd17.1_B\evb_emb\hxcard\Evb\cardApp\iar\bin\cardApp.out
#        --map
#        D:\ESSEK_WORKSPACES\bsd17.1_B\evb_emb\hxcard\Evb\cardApp\iar\bin\cardApp.map
#        --log libraries,initialization,modules,redirects,sections --log_file
#        D:\ESSEK_WORKSPACES\bsd17.1_B\evb_emb\hxcard\Evb\cardApp\iar\bin\cardApp.log
#        --config
#        D:\ESSEK_WORKSPACES\bsd17.1_B\evb_emb\hxcard\Evb\cardApp\iar\cardApp.icf
#        --semihosting
#        D:\ESSEK_WORKSPACES\bsd17.1_B\evb_emb\hxcard\Evb\cardApp\iar\..\..\..\apollo\mcu\apollo3\hal\iar\bin\libam_hal.a
#        D:\ESSEK_WORKSPACES\bsd17.1_B\evb_emb\hxcard\Evb\cardApp\iar\..\..\bsp\iar\bin\libam_bsp.a
#        D:\ESSEK_WORKSPACES\bsd17.1_B\evb_emb\hxcard\Evb\cardApp\iar\..\..\..\libtommath\iar\bin\libtommath.a
#        D:\ESSEK_WORKSPACES\bsd17.1_B\evb_emb\hxcard\Evb\cardApp\iar\..\..\..\libtomcrypt\iar\bin\libtomcrypt.a
#        --entry __iar_program_start --redirect
#        __iar_sh_stdout=__iar_sh_stdout_swo --no_vfe --text_out locale)
#
###############################################################################

*******************************************************************************
*** RUNTIME MODEL ATTRIBUTES
***

CppFlavor       = *
__Heap_Handler  = DLMalloc
__SystemLibrary = DLib
__dlib_version  = 6


*******************************************************************************
*** HEAP SELECTION
***

The advanced heap was selected because the application calls memory
allocation functions outside of system library functions, and there
are calls to deallocation functions in the application.


*******************************************************************************
*** PLACEMENT SUMMARY
***

define block FLASHBASE
   with fixed order { ro section .intvec, ro section .patch };
"A0":  place at start of [from 0xc000 to 0xf'c000] { block FLASHBASE };
"P1":  place in [from 0xc000 to 0xf'c000] { ro };
define block CSTACK with size = 1K, alignment = 8 { };
"A1":  place at start of [from 0x1000'0000 to 0x1006'0000] {
          block CSTACK, section .noinit };
define block HEAP with size = 0M, alignment = 8 { };
"P2":  place in [from 0x1000'0000 to 0x1006'0000] { block HEAP, rw };
do not initialize { section .noinit };
initialize by copy { rw };

  Section            Kind         Address     Size  Object
  -------            ----         -------     ----  ------
"A0":                                        0x100
  FLASHBASE                        0xc000    0x100  <Block>
    .intvec          const         0xc000     0xc0  startup_iar.o [1]
    .patch           const         0xc0c0     0x40  startup_iar.o [1]
                                 - 0xc100    0x100

"P1":                                      0x4dc2f
  .text              ro code       0xc100   0x833c  saferp.o [5]
  .text              ro code     0x1'443c     0x22  compare_testvector.o [5]
  .text              ro code     0x1'445e     0x3a  zero_init3.o [8]
  .text              ro code     0x1'4498     0x62  memcmp_unaligned.o [8]
  .text              ro code     0x1'44fa     0x1e  xsscin.o [2]
  .rodata            const       0x1'4518   0x4000  des.o [5]
  .rodata            const       0x1'8518   0x4000  des.o [5]
  .text              ro code     0x1'c518   0x2d84  camellia.o [5]
  .text              ro code     0x1'f29c     0x12  zeromem.o [5]
  .text              ro code     0x1'f2ae     0x1a  xsnprout.o [2]
  .text              ro code     0x1'f2c8   0x1fe4  sha256.o [5]
  .text              ro code     0x2'12ac     0x76  ABImemcpy_unaligned.o [8]
  .text              ro code     0x2'1322      0x2  startup_iar.o [1]
  .text              ro code     0x2'1324     0x36  strlen.o [8]
  .text              ro code     0x2'135a      0x2  startup_iar.o [1]
  .text              ro code     0x2'135c   0x1d60  dlmalloc.o [2]
  .text              ro code     0x2'30bc      0x6  abort.o [2]
  .rodata            const       0x2'30c2      0x1  hxsc_crypto.o [1]
  .text              ro code     0x2'30c4     0x2c  xgetmemchunk.o [2]
  .text              ro code     0x2'30f0      0x6  ABImemclr.o [8]
  .text              ro code     0x2'30f8     0x14  exit.o [9]
  .text              ro code     0x2'310c     0x66  ABImemset.o [8]
  .text              ro code     0x2'3174   0x1600  serpent.o [5]
  .text              ro code     0x2'4774      0x6  ABImemclr4.o [8]
  .text              ro code     0x2'477c     0x32  ABImemset48.o [8]
  .rodata            const       0x2'47b0   0x1000  blowfish.o [5]
  .rodata            const       0x2'57b0   0x1000  twofish.o [5]
  .text              ro code     0x2'67b0    0xfb6  cast5.o [5]
  .text              ro code     0x2'7768    0xdd8  sober128_stream.o [5]
  .text              ro code     0x2'8540    0xc28  twofish.o [5]
  .text              ro code     0x2'9168    0xb70  aes.o [5]
  .text              ro code     0x2'9cd8    0x9de  kseed.o [5]
  .text              ro code     0x2'a6b8    0x8c0  am_util_stdio.o [1]
  .text              ro code     0x2'af78     0x68  DblToFlt.o [7]
  .text              ro code     0x2'afe0    0x896  des.o [5]
  .text              ro code     0x2'b878    0x87c  safer.o [5]
  .text              ro code     0x2'c0f4    0x85c  anubis.o [5]
  .rodata            const       0x2'c950    0x800  kasumi.o [5]
  .rodata            const       0x2'd150    0x800  khazad.o [5]
  .rodata            const       0x2'd950    0x800  khazad.o [5]
  .rodata            const       0x2'e150    0x800  khazad.o [5]
  .rodata            const       0x2'e950    0x800  khazad.o [5]
  .rodata            const       0x2'f150    0x800  khazad.o [5]
  .rodata            const       0x2'f950    0x800  khazad.o [5]
  .rodata            const       0x3'0150    0x800  khazad.o [5]
  .rodata            const       0x3'0950    0x800  khazad.o [5]
  .text              ro code     0x3'1150    0x7fc  der_decode_custom_type.o [5]
  .text              ro code     0x3'194c    0x2fc  hxsc_memmgr.o [1]
  .text              ro code     0x3'1c48    0x144  der_decode_asn1_identifier.o [5]
  .text              ro code     0x3'1d8c     0x6a  der_decode_asn1_length.o [5]
  .text              ro code     0x3'1df6     0x32  der_decode_boolean.o [5]
  .text              ro code     0x3'1e28      0x8  der_length_boolean.o [5]
  .text              ro code     0x3'1e30     0xa8  der_decode_integer.o [5]
  .text              ro code     0x3'1ed8     0xa0  der_length_integer.o [5]
  .text              ro code     0x3'1f78     0x46  der_decode_short_integer.o [5]
  .text              ro code     0x3'1fbe     0x4c  der_length_short_integer.o [5]
  .text              ro code     0x3'200a     0xc2  der_decode_bit_string.o [5]
  .text              ro code     0x3'20cc     0x32  der_length_bit_string.o [5]
  .text              ro code     0x3'20fe     0xf2  der_decode_raw_bit_string.o [5]
  .text              ro code     0x3'21f0     0x8a  der_decode_octet_string.o [5]
  .text              ro code     0x3'227a     0x22  der_length_octet_string.o [5]
  .text              ro code     0x3'229c     0xf2  der_decode_object_identifier.o [5]
  .text              ro code     0x3'238e     0xc0  der_length_object_identifier.o [5]
  .text              ro code     0x3'244e     0x98  der_decode_teletex_string.o [5]
  .text              ro code     0x3'24e8     0x92  der_length_teletex_string.o [5]
  .text              ro code     0x3'257a     0x98  der_decode_ia5_string.o [5]
  .text              ro code     0x3'2614     0x92  der_length_ia5_string.o [5]
  .text              ro code     0x3'26a6     0x98  der_decode_printable_string.o [5]
  .text              ro code     0x3'2740     0x92  der_length_printable_string.o [5]
  .text              ro code     0x3'27d2     0xea  der_decode_utf8_string.o [5]
  .text              ro code     0x3'28bc     0x86  der_length_utf8_string.o [5]
  .text              ro code     0x3'2942    0x29c  der_decode_utctime.o [5]
  .text              ro code     0x3'2bde    0x2a8  der_decode_generalizedtime.o [5]
  .text              ro code     0x3'2e86     0x12  der_decode_sequence_ex.o [5]
  .text              ro code     0x3'2e98    0x23e  der_length_sequence.o [5]
  .text              ro code     0x3'30d6    0x278  der_length_custom_type.o [5]
  .text              ro code     0x3'334e    0x40a  der_decode_choice.o [5]
  .text              ro code     0x3'3758      0xc  der_length_asn1_length.o [5]
  .text              ro code     0x3'3764     0x1a  der_length_utctime.o [5]
  .text              ro code     0x3'377e     0x38  der_length_generalizedtime.o [5]
  .text              ro code     0x3'37b6      0xc  der_length_asn1_identifier.o [5]
  .text              ro code     0x3'37c2     0xb4  der_encode_asn1_length.o [5]
  .text              ro code     0x3'3878    0x140  der_encode_asn1_identifier.o [5]
  .text              ro code     0x3'39b8     0x1e  U64Shr.o [8]
  .text              ro code     0x3'39d8    0x73e  rc6.o [5]
  .text              ro code     0x3'4118    0x6b4  khazad.o [5]
  .text              ro code     0x3'47cc    0x680  sha1.o [5]
  .text              ro code     0x3'4e4c    0x67c  ltc_ecc_projective_add_point.o [5]
  .text              ro code     0x3'54c8     0x90  multi.o [5]
  .text              ro code     0x3'5558     0xc4  ltc_ecc_is_point_at_infinity.o [5]
  .text              ro code     0x3'561c     0xdc  ltc_ecc_points.o [5]
  .text              ro code     0x3'56f8    0x4d0  ltc_ecc_projective_dbl_point.o [5]
  .text              ro code     0x3'5bc8    0x5a2  blowfish.o [5]
  .text              ro code     0x3'616c    0x594  xscanfsmall_nomb.o [2]
  .text              ro code     0x3'6700     0x16  strchr.o [8]
  .text              ro code     0x3'6718     0x40  xfail_s.o [2]
  .text              ro code     0x3'6758     0x82  iar_Stolx.o [2]
  .text              ro code     0x3'67dc    0x14a  iar_Stoulx.o [2]
  .text              ro code     0x3'6928     0x58  memchr.o [8]
  .text              ro code     0x3'6980    0x554  bn_mp_prime_strong_lucas_selfridge.o [6]
  .text              ro code     0x3'6ed4     0x3a  bn_mp_init.o [6]
  .text              ro code     0x3'6f0e     0x48  bn_mp_set_long.o [6]
  .text              ro code     0x3'6f58     0xc0  bn_mp_mul.o [6]
  .text              ro code     0x3'7018     0x38  bn_mp_clear.o [6]
  .text              ro code     0x3'7050     0x60  bn_mp_init_multi.o [6]
  .text              ro code     0x3'70b0    0x138  bn_mp_gcd.o [6]
  .text              ro code     0x3'71e8     0x36  bn_mp_cmp_d.o [6]
  .text              ro code     0x3'721e     0x38  bn_mp_cmp.o [6]
  .text              ro code     0x3'7258    0x1b4  bn_mp_kronecker.o [6]
  .text              ro code     0x3'740c    0x11a  bn_mp_add_d.o [6]
  .text              ro code     0x3'7528     0x50  bn_mp_cnt_lsb.o [6]
  .text              ro code     0x3'7578     0xca  bn_mp_div_2d.o [6]
  .text              ro code     0x3'7642     0x26  bn_mp_set.o [6]
  .text              ro code     0x3'7668     0xaa  bn_mp_mul_2.o [6]
  .text              ro code     0x3'7712     0x2c  bn_mp_count_bits.o [6]
  .text              ro code     0x3'773e     0x6e  bn_mp_mod.o [6]
  .text              ro code     0x3'77ac     0x60  bn_mp_sqr.o [6]
  .text              ro code     0x3'780c     0x58  bn_mp_sub.o [6]
  .text              ro code     0x3'7864     0x50  bn_mp_get_bit.o [6]
  .text              ro code     0x3'78b4     0x50  bn_mp_add.o [6]
  .text              ro code     0x3'7904     0xa6  bn_mp_div_2.o [6]
  .text              ro code     0x3'79aa    0x11e  bn_mp_sub_d.o [6]
  .text              ro code     0x3'7ac8     0x22  bn_mp_clear_multi.o [6]
  .text              ro code     0x3'7aea     0x1e  bn_mp_zero.o [6]
  .text              ro code     0x3'7b08     0xe4  bn_mp_mul_2d.o [6]
  .text              ro code     0x3'7bec     0x2a  bn_mp_clamp.o [6]
  .text              ro code     0x3'7c16    0x4b4  bn_mp_toom_mul.o [6]
  .text              ro code     0x3'80ca    0x1f0  bn_mp_karatsuba_mul.o [6]
  .text              ro code     0x3'82ba    0x126  bn_fast_s_mp_mul_digs.o [6]
  .text              ro code     0x3'83e0    0x10a  bn_s_mp_mul_digs.o [6]
  .text              ro code     0x3'84ea     0x24  bn_mp_abs.o [6]
  .text              ro code     0x3'850e     0x30  bn_mp_init_copy.o [6]
  .text              ro code     0x3'853e     0x62  bn_mp_cmp_mag.o [6]
  .text              ro code     0x3'85a0     0x2a  bn_mp_exch.o [6]
  .text              ro code     0x3'85ca     0xb2  bn_s_mp_sub.o [6]
  .text              ro code     0x3'867c     0x5c  bn_mp_copy.o [6]
  .text              ro code     0x3'86d8     0x4e  bn_mp_grow.o [6]
  .text              ro code     0x3'8726     0xac  bn_mp_mod_2d.o [6]
  .text              ro code     0x3'87d2     0x4e  bn_mp_rshd.o [6]
  .text              ro code     0x3'8820     0x48  bn_mp_init_size.o [6]
  .text              ro code     0x3'8868    0x3bc  bn_mp_div.o [6]
  .text              ro code     0x3'8c24    0x380  bn_mp_toom_sqr.o [6]
  .text              ro code     0x3'8fa4    0x15c  bn_mp_karatsuba_sqr.o [6]
  .text              ro code     0x3'9100    0x17a  bn_fast_s_mp_sqr.o [6]
  .text              ro code     0x3'927a    0x132  bn_s_mp_sqr.o [6]
  .text              ro code     0x3'93ac     0xf6  bn_s_mp_add.o [6]
  .text              ro code     0x3'94a2     0x84  bn_mp_lshd.o [6]
  .text              ro code     0x3'9526     0xb6  bn_mp_mul_d.o [6]
  .text              ro code     0x3'95dc     0xec  bn_mp_div_3.o [6]
  .text              ro code     0x3'96c8    0x230  I64DivMod.o [8]
  .text              ro code     0x3'98f8      0x2  I64DivZer.o [8]
  .text              ro code     0x3'98fc    0x546  rc5.o [5]
  .text              ro code     0x3'9e44    0x504  noekeon.o [5]
  .text              ro code     0x3'a348    0x500  hxsc_crypto.o [1]
  .text              ro code     0x3'a848    0x100  crypt_register_all_ciphers.o [5]
  .text              ro code     0x3'a948     0x1c  crypt_register_all_hashes.o [5]
  .text              ro code     0x3'a964     0x44  crypt_register_all_prngs.o [5]
  .text              ro code     0x3'a9a8     0x3c  crypt_find_prng.o [5]
  .text              ro code     0x3'a9e4     0xe8  rng_make_prng.o [5]
  .text              ro code     0x3'aacc     0x50  hxsc_debug.o [1]
  .text              ro code     0x3'ab1c     0x30  crypt_inits.o [5]
  .text              ro code     0x3'ab4c     0x3c  crypt_find_hash.o [5]
  .text              ro code     0x3'ab88    0x214  rsa_import.o [5]
  .text              ro code     0x3'ad9c     0xe8  rsa_decrypt_key.o [5]
  .text              ro code     0x3'ae84    0x14c  ecc_find_curve.o [5]
  .text              ro code     0x3'afd0     0xfc  ecc_set_curve.o [5]
  .text              ro code     0x3'b0cc     0xc4  ecc_set_key.o [5]
  .text              ro code     0x3'b190    0x40c  ecc_sign_hash.o [5]
  .text              ro code     0x3'b59c     0x28  sscanf.o [2]
  .text              ro code     0x3'b5c4     0x64  crypt_register_cipher.o [5]
  .text              ro code     0x3'b628     0x60  crypt_register_hash.o [5]
  .text              ro code     0x3'b688     0x60  crypt_register_prng.o [5]
  .text              ro code     0x3'b6e8     0x12  strcmp.o [8]
  .text              ro code     0x3'b6fc     0x20  crypt_prng_is_valid.o [5]
  .text              ro code     0x3'b71c     0x58  rng_get_bytes.o [5]
  .text              ro code     0x3'b774    0x238  x509_decode_subject_public_key_info.o [5]
  .text              ro code     0x3'b9ac    0x10a  der_decode_sequence_multi.o [5]
  .text              ro code     0x3'bab8     0x20  crypt_hash_is_valid.o [5]
  .text              ro code     0x3'bad8    0x23c  pkcs_1_oaep_decode.o [5]
  .text              ro code     0x3'bd14     0xac  pkcs_1_v1_5_decode.o [5]
  .text              ro code     0x3'bdc0     0x48  ecc_free.o [5]
  .text              ro code     0x3'be08    0x150  pk_oid_str.o [5]
  .text              ro code     0x3'bf58    0x1ac  ltc_ecc_import_point.o [5]
  .text              ro code     0x3'c104     0xd0  ltc_ecc_verify_key.o [5]
  .text              ro code     0x3'c1d4    0x1bc  ecc_set_curve_internal.o [5]
  .text              ro code     0x3'c390     0x50  ecc_make_key.o [5]
  .text              ro code     0x3'c3e0     0xec  rand_bn.o [5]
  .text              ro code     0x3'c4cc    0x122  der_encode_sequence_multi.o [5]
  .text              ro code     0x3'c5ee     0x74  pk_oid_cmp.o [5]
  .text              ro code     0x3'c664     0xa4  ecc_ssh_ecdsa_encode_name.o [5]
  .text              ro code     0x3'c708    0x234  ssh_encode_sequence_multi.o [5]
  .text              ro code     0x3'c93c     0xa4  rand.o [2]
  .text              ro code     0x3'c9e0      0xa  clock.o [9]
  .text              ro code     0x3'c9ec     0x30  pk_get_oid.o [5]
  .text              ro code     0x3'ca1c    0x11c  pkcs_1_mgf1.o [5]
  .text              ro code     0x3'cb38     0xb0  hash_memory.o [5]
  .text              ro code     0x3'cbe8     0x3e  mem_neq.o [5]
  .text              ro code     0x3'cc28    0x118  ltc_ecc_is_point.o [5]
  .text              ro code     0x3'cd40    0x344  ltc_ecc_mulmod_timing.o [5]
  .text              ro code     0x3'd084    0x2d6  der_encode_sequence_ex.o [5]
  .text              ro code     0x3'd35a     0x14  ecc_get_oid_str.o [5]
  .text              ro code     0x3'd370     0x44  snprintf.o [2]
  .text              ro code     0x3'd3b4     0x6c  strncpy_unaligned.o [8]
  .text              ro code     0x3'd420    0x108  ltc_ecc_map.o [5]
  .text              ro code     0x3'd528     0x2a  der_encode_boolean.o [5]
  .text              ro code     0x3'd554    0x1a0  der_encode_integer.o [5]
  .text              ro code     0x3'd6f4     0x94  der_encode_short_integer.o [5]
  .text              ro code     0x3'd788     0xc4  der_encode_bit_string.o [5]
  .text              ro code     0x3'd84c     0xe2  der_encode_raw_bit_string.o [5]
  .text              ro code     0x3'd92e     0x7e  der_encode_octet_string.o [5]
  .text              ro code     0x3'd9ac    0x15e  der_encode_object_identifier.o [5]
  .text              ro code     0x3'db0a     0x8a  der_encode_ia5_string.o [5]
  .text              ro code     0x3'db94     0x8a  der_encode_printable_string.o [5]
  .text              ro code     0x3'dc1e    0x1d8  der_encode_utf8_string.o [5]
  .text              ro code     0x3'ddf8    0x270  der_encode_utctime.o [5]
  .text              ro code     0x3'e068    0x334  der_encode_generalizedtime.o [5]
  .text              ro code     0x3'e39c     0xb0  der_encode_set.o [5]
  .text              ro code     0x3'e44c    0x1c4  der_encode_setof.o [5]
  .text              ro code     0x3'e610    0x320  der_encode_custom_type.o [5]
  .text              ro code     0x3'e930    0x13e  xprintftiny.o [2]
  .text              ro code     0x3'ea6e    0x4cc  qsort.o [2]
  .text              ro code     0x3'ef3c     0x78  ABImemmove_unaligned.o [8]
  .text              ro code     0x3'efb4    0x4c0  fortuna.o [5]
  .text              ro code     0x3'f474    0x4ac  idea.o [5]
  .text              ro code     0x3'f920    0x4a0  multi2.o [5]
  .text              ro code     0x3'fdc0    0x48a  chacha_crypt.o [5]
  .text              ro code     0x4'024c    0x47a  rc2.o [5]
  .rodata            const       0x4'06c8    0x428  anubis.o [5]
  .text              ro code     0x4'0af0    0x414  bn_mp_exptmod_fast.o [6]
  .text              ro code     0x4'0f04     0x4a  bn_mp_montgomery_setup.o [6]
  .text              ro code     0x4'0f4e      0xc  bn_mp_dr_setup.o [6]
  .text              ro code     0x4'0f5a     0x66  bn_mp_reduce_2k_setup.o [6]
  .text              ro code     0x4'0fc0     0x8e  bn_mp_montgomery_calc_normalization.o [6]
  .text              ro code     0x4'104e     0x54  bn_mp_mulmod.o [6]
  .text              ro code     0x4'10a2     0x4e  bn_mp_2expt.o [6]
  .text              ro code     0x4'10f0    0x40e  skipjack.o [5]
  .text              ro code     0x4'1500    0x408  kasumi.o [5]
  .rodata            const       0x4'1908    0x400  aes.o [5]
  .rodata            const       0x4'1d08    0x400  aes.o [5]
  .rodata            const       0x4'2108    0x400  aes.o [5]
  .rodata            const       0x4'2508    0x400  aes.o [5]
  .rodata            const       0x4'2908    0x400  aes.o [5]
  .rodata            const       0x4'2d08    0x400  aes.o [5]
  .rodata            const       0x4'3108    0x400  aes.o [5]
  .rodata            const       0x4'3508    0x400  aes.o [5]
  .rodata            const       0x4'3908    0x400  aes.o [5]
  .rodata            const       0x4'3d08    0x400  aes.o [5]
  .rodata            const       0x4'4108    0x400  aes.o [5]
  .rodata            const       0x4'4508    0x400  aes.o [5]
  .rodata            const       0x4'4908    0x400  aes.o [5]
  .rodata            const       0x4'4d08    0x400  aes.o [5]
  .rodata            const       0x4'5108    0x400  aes.o [5]
  .rodata            const       0x4'5508    0x400  aes.o [5]
  .rodata            const       0x4'5908    0x400  aes.o [5]
  .rodata            const       0x4'5d08    0x400  anubis.o [5]
  .rodata            const       0x4'6108    0x400  anubis.o [5]
  .rodata            const       0x4'6508    0x400  anubis.o [5]
  .rodata            const       0x4'6908    0x400  anubis.o [5]
  .rodata            const       0x4'6d08    0x400  anubis.o [5]
  .rodata            const       0x4'7108    0x400  anubis.o [5]
  .rodata            const       0x4'7508    0x400  camellia.o [5]
  .rodata            const       0x4'7908    0x400  camellia.o [5]
  .rodata            const       0x4'7d08    0x400  camellia.o [5]
  .rodata            const       0x4'8108    0x400  camellia.o [5]
  .rodata            const       0x4'8508    0x400  cast5.o [5]
  .rodata            const       0x4'8908    0x400  cast5.o [5]
  .rodata            const       0x4'8d08    0x400  cast5.o [5]
  .rodata            const       0x4'9108    0x400  cast5.o [5]
  .rodata            const       0x4'9508    0x400  cast5.o [5]
  .rodata            const       0x4'9908    0x400  cast5.o [5]
  .rodata            const       0x4'9d08    0x400  cast5.o [5]
  .rodata            const       0x4'a108    0x400  cast5.o [5]
  .rodata            const       0x4'a508    0x400  kseed.o [5]
  .rodata            const       0x4'a908    0x400  kseed.o [5]
  .rodata            const       0x4'ad08    0x400  kseed.o [5]
  .rodata            const       0x4'b108    0x400  kseed.o [5]
  .rodata            const       0x4'b508    0x400  sober128_stream.o [5]
  .rodata            const       0x4'b908    0x400  sober128_stream.o [5]
  .rodata            const       0x4'bd08    0x400  bn_prime_tab.o [6]
  .text              ro code     0x4'c108    0x3ec  rc4.o [5]
  .text              ro code     0x4'c4f4    0x10a  rc4_stream.o [5]
  .text              ro code     0x4'c600    0x3c8  xtea.o [5]
  .text              ro code     0x4'c9c8    0x3c4  chacha20.o [5]
  .text              ro code     0x4'cd8c     0x2a  chacha_keystream.o [5]
  .text              ro code     0x4'cdb8     0xec  chacha_setup.o [5]
  .text              ro code     0x4'cea4     0x3a  chacha_ivctr64.o [5]
  .text              ro code     0x4'cede     0x12  chacha_done.o [5]
  .rodata            const       0x4'cef0    0x3b0  der_length_teletex_string.o [5]
  .text              ro code     0x4'd2a0    0x3b0  sober128.o [5]
  .text              ro code     0x4'd650    0x3a8  am_hal_gpio.o [4]
  .text              ro code     0x4'd9f8     0x14  am_hal_interrupt.o [4]
  .text              ro code     0x4'da0c    0x3a4  bn_s_mp_exptmod.o [6]
  .text              ro code     0x4'ddb0     0x2a  bn_mp_reduce_setup.o [6]
  .text              ro code     0x4'ddda     0x46  bn_mp_reduce_2k_setup_l.o [6]
  .text              ro code     0x4'de20    0x390  ltc_ecc_mul2add.o [5]
  .rodata            const       0x4'e1b0    0x330  der_length_ia5_string.o [5]
  .text              ro code     0x4'e4e0    0x30e  bn_mp_invmod_slow.o [6]
  .text              ro code     0x4'e7ee    0x30c  bn_mp_sqrtmod_prime.o [6]
  .text              ro code     0x4'eafa     0x32  bn_mp_jacobi.o [6]
  .text              ro code     0x4'eb2c     0x16  bn_mp_mod_d.o [6]
  .text              ro code     0x4'eb42    0x10a  bn_mp_exptmod.o [6]
  .text              ro code     0x4'ec4c     0x48  bn_mp_set_int.o [6]
  .text              ro code     0x4'ec94     0x4c  bn_mp_sqrmod.o [6]
  .text              ro code     0x4'ece0    0x160  bn_mp_div_d.o [6]
  .text              ro code     0x4'ee40     0x4e  bn_mp_invmod.o [6]
  .text              ro code     0x4'ee8e     0x56  bn_mp_reduce_is_2k_l.o [6]
  .text              ro code     0x4'eee4     0x2e  bn_mp_dr_is_modulus.o [6]
  .text              ro code     0x4'ef12     0x62  bn_mp_reduce_is_2k.o [6]
  .text              ro code     0x4'ef74    0x248  bn_fast_mp_invmod.o [6]
  .text              ro code     0x4'f1bc    0x2f0  rsa_exptmod.o [5]
  .text              ro code     0x4'f4ac    0x2ea  ltm_desc.o [5]
  .text              ro code     0x4'f796     0x3a  bn_mp_neg.o [6]
  .text              ro code     0x4'f7d0     0x34  bn_mp_get_int.o [6]
  .text              ro code     0x4'f804     0xe0  bn_mp_read_radix.o [6]
  .text              ro code     0x4'f8e4     0xac  bn_mp_toradix.o [6]
  .text              ro code     0x4'f990     0x24  bn_mp_unsigned_bin_size.o [6]
  .text              ro code     0x4'f9b4     0x5a  bn_mp_to_unsigned_bin.o [6]
  .text              ro code     0x4'fa0e     0x62  bn_mp_read_unsigned_bin.o [6]
  .text              ro code     0x4'fa70     0x92  bn_mp_lcm.o [6]
  .text              ro code     0x4'fb02     0x52  bn_mp_addmod.o [6]
  .text              ro code     0x4'fb54     0x52  bn_mp_submod.o [6]
  .text              ro code     0x4'fba6    0x132  bn_mp_montgomery_reduce.o [6]
  .text              ro code     0x4'fcd8    0x2c8  bn_mp_prime_is_prime.o [6]
  .text              ro code     0x4'ffa0     0xde  bn_mp_rand.o [6]
  .text              ro code     0x5'007e      0xc  toupper.o [2]
  .text              ro code     0x5'008a     0x1e  bn_reverse.o [6]
  .text              ro code     0x5'00a8    0x18e  bn_fast_mp_montgomery_reduce.o [6]
  .text              ro code     0x5'0238    0x164  bn_mp_is_square.o [6]
  .text              ro code     0x5'039c     0x44  bn_mp_prime_is_divisible.o [6]
  .text              ro code     0x5'03e0     0x22  bn_mp_init_set.o [6]
  .text              ro code     0x5'0402    0x104  bn_mp_prime_miller_rabin.o [6]
  .text              ro code     0x5'0506     0x20  bn_mp_init_set_int.o [6]
  .text              ro code     0x5'0526     0xd6  bn_mp_sqrt.o [6]
  .rodata            const       0x5'05fc    0x2a0  ecc.o [5]
  .rodata            const       0x5'089c    0x280  des.o [5]
  .text              ro code     0x5'0b1c    0x278  cardApp.o [1]
  .text              ro code     0x5'0d94      0x4  heaptramp0.o [2]
  .text              ro code     0x5'0d98    0x128  am_hal_clkgen.o [4]
  .text              ro code     0x5'0ec0     0x5c  am_hal_cachectrl.o [4]
  .text              ro code     0x5'0f1c     0xb8  am_bsp.o [3]
  .text              ro code     0x5'0fd4    0x12c  am_util_id.o [1]
  .text              ro code     0x5'1100     0xc8  am_hal_security.o [4]
  .text              ro code     0x5'11c8     0xac  am_hal_pwrctrl.o [4]
  .text              ro code     0x5'1274     0x30  am_hal_rtc.o [4]
  .text              ro code     0x5'12a4     0xe8  am_hal_itm.o [4]
  .text              ro code     0x5'138c     0xb4  am_hal_tpiu.o [4]
  .text              ro code     0x5'1440    0x1d4  am_hal_mcuctrl.o [4]
  .text              ro code     0x5'1614     0x58  am_hal_flash.o [4]
  .text              ro code     0x5'166c    0x278  yarrow.o [5]
  .text              ro code     0x5'18e4     0x20  crypt_cipher_is_valid.o [5]
  .text              ro code     0x5'1904    0x12c  ctr_start.o [5]
  .text              ro code     0x5'1a30    0x19c  ctr_encrypt.o [5]
  .text              ro code     0x5'1bcc     0x30  ctr_done.o [5]
  .rodata            const       0x5'1bfc    0x264  serpent.o [5]
  .rodata            const       0x5'1e60    0x250  der_length_printable_string.o [5]
  .rodata            const       0x5'20b0    0x24c  ecc_find_curve.o [5]
  .text              ro code     0x5'22fc    0x218  rsa_make_key.o [5]
  .text              ro code     0x5'2514     0xf0  rand_prime.o [5]
  .text              ro code     0x5'2604     0x34  rsa_free.o [5]
  .rodata            const       0x5'2638    0x210  saferp.o [5]
  .rodata            const       0x5'2848    0x200  kasumi.o [5]
  .rodata            const       0x5'2a48    0x200  twofish.o [5]
  .rodata            const       0x5'2c48    0x1a0  noekeon.o [5]
  .rodata            const       0x5'2de8    0x140  xtea.o [5]
  .text              ro code     0x5'2f28    0x11a  bn_s_mp_mul_high_digs.o [6]
  .text              ro code     0x5'3042    0x116  bn_fast_s_mp_mul_high_digs.o [6]
  .rodata            const       0x5'3158    0x118  rc2.o [5]
  .rodata            const       0x5'3270    0x110  camellia.o [5]
  .rodata            const       0x5'3380    0x100  des.o [5]
  .rodata            const       0x5'3480    0x100  des.o [5]
  .rodata            const       0x5'3580    0x100  des.o [5]
  .rodata            const       0x5'3680    0x100  des.o [5]
  .rodata            const       0x5'3780    0x100  des.o [5]
  .rodata            const       0x5'3880    0x100  des.o [5]
  .rodata            const       0x5'3980    0x100  des.o [5]
  .rodata            const       0x5'3a80    0x100  des.o [5]
  .rodata            const       0x5'3b80    0x100  rc2.o [5]
  .rodata            const       0x5'3c80    0x100  safer.o [5]
  .rodata            const       0x5'3d80    0x100  safer.o [5]
  .rodata            const       0x5'3e80    0x100  saferp.o [5]
  .rodata            const       0x5'3f80    0x100  saferp.o [5]
  .rodata            const       0x5'4080    0x100  skipjack.o [5]
  .text              ro code     0x5'4180     0xf4  bn_mp_reduce.o [6]
  .text              ro code     0x5'4274     0xd8  am_util_faultisr.o [1]
  .rodata            const       0x5'434c     0xd4  ltm_desc.o [5]
  .text              ro code     0x5'4420     0xd2  bn_mp_dr_reduce.o [6]
  .rodata            const       0x5'44f4     0xcc  aes.o [5]
  .rodata            const       0x5'45c0     0xcc  rc6.o [5]
  .rodata            const       0x5'468c     0xcc  saferp.o [5]
  .rodata            const       0x5'4758     0xcc  twofish.o [5]
  .rodata            const       0x5'4824     0xc8  am_hal_gpio.o [4]
  .rodata            const       0x5'48ec     0xc8  rc5.o [5]
  .rodata            const       0x5'49b4     0xc0  kseed.o [5]
  .rodata            const       0x5'4a74     0xb0  rc6.o [5]
  .rodata            const       0x5'4b24     0xa0  idea.o [5]
  .rodata            const       0x5'4bc4     0xa0  kasumi.o [5]
  .text              ro code     0x5'4c64     0x98  sprng.o [5]
  .text              ro code     0x5'4cfc     0x86  bn_mp_reduce_2k.o [6]
  .rodata            const       0x5'4d84     0x84  ecc.o [5]
  .rodata            const       0x5'4e08     0x84  ecc.o [5]
  .rodata            const       0x5'4e8c     0x84  ecc.o [5]
  .rodata            const       0x5'4f10     0x84  ecc.o [5]
  .rodata            const       0x5'4f94     0x84  ecc.o [5]
  .rodata            const       0x5'5018     0x84  ecc.o [5]
  .rodata            const       0x5'509c     0x84  ecc.o [5]
  .rodata            const       0x5'5120     0x84  ecc.o [5]
  .rodata            const       0x5'51a4     0x84  ecc.o [5]
  .rodata            const       0x5'5228     0x84  ecc.o [5]
  .text              ro code     0x5'52ac     0x82  bn_mp_reduce_2k_l.o [6]
  .rodata            const       0x5'5330     0x80  khazad.o [5]
  .rodata            const       0x5'53b0     0x80  bn_mp_is_square.o [6]
  .rodata            const       0x5'5430     0x78  multi2.o [5]
  .rodata            const       0x5'54a8     0x6c  cardApp.o [1]
  .rodata            const       0x5'5514     0x6c  cast5.o [5]
  .rodata            const       0x5'5580     0x6c  bn_mp_is_square.o [6]
  .rodata            const       0x5'55ec     0x68  sha256.o [5]
  .rodata            const       0x5'5654     0x68  aes.o [5]
  .rodata            const       0x5'56bc     0x68  aes.o [5]
  .rodata            const       0x5'5724     0x68  anubis.o [5]
  .rodata            const       0x5'578c     0x68  blowfish.o [5]
  .rodata            const       0x5'57f4     0x68  camellia.o [5]
  .rodata            const       0x5'585c     0x68  cast5.o [5]
  .rodata            const       0x5'58c4     0x68  des.o [5]
  .rodata            const       0x5'592c     0x68  des.o [5]
  .rodata            const       0x5'5994     0x68  idea.o [5]
  .rodata            const       0x5'59fc     0x68  kasumi.o [5]
  .rodata            const       0x5'5a64     0x68  khazad.o [5]
  .rodata            const       0x5'5acc     0x68  kseed.o [5]
  .rodata            const       0x5'5b34     0x68  multi2.o [5]
  .rodata            const       0x5'5b9c     0x68  noekeon.o [5]
  .rodata            const       0x5'5c04     0x68  rc2.o [5]
  .rodata            const       0x5'5c6c     0x68  rc5.o [5]
  .rodata            const       0x5'5cd4     0x68  rc6.o [5]
  .rodata            const       0x5'5d3c     0x68  safer.o [5]
  .rodata            const       0x5'5da4     0x68  safer.o [5]
  .rodata            const       0x5'5e0c     0x68  safer.o [5]
  .rodata            const       0x5'5e74     0x68  safer.o [5]
  .rodata            const       0x5'5edc     0x68  saferp.o [5]
  .rodata            const       0x5'5f44     0x68  serpent.o [5]
  .rodata            const       0x5'5fac     0x68  skipjack.o [5]
  .rodata            const       0x5'6014     0x68  twofish.o [5]
  .rodata            const       0x5'607c     0x68  xtea.o [5]
  .rodata            const       0x5'60e4     0x68  sha1.o [5]
  .rodata            const       0x5'614c     0x64  ecc.o [5]
  .rodata            const       0x5'61b0     0x64  ecc.o [5]
  .rodata            const       0x5'6214     0x64  ecc.o [5]
  .rodata            const       0x5'6278     0x64  ecc.o [5]
  .rodata            const       0x5'62dc     0x64  ecc.o [5]
  .rodata            const       0x5'6340     0x64  ecc.o [5]
  .rodata            const       0x5'63a4     0x64  ecc.o [5]
  .rodata            const       0x5'6408     0x64  ecc.o [5]
  .rodata            const       0x5'646c     0x64  ecc.o [5]
  .rodata            const       0x5'64d0     0x64  ecc.o [5]
  .rodata            const       0x5'6534     0x60  am_hal_flash.o [4]
  .rodata            const       0x5'6594     0x60  des.o [5]
  .rodata            const       0x5'65f4     0x60  rc5.o [5]
  .rodata            const       0x5'6654     0x58  bn_mp_radix_smap.o [6]
  .rodata            const       0x5'66ac     0x54  ecc.o [5]
  .rodata            const       0x5'6700     0x54  ecc.o [5]
  .rodata            const       0x5'6754     0x54  ecc.o [5]
  .rodata            const       0x5'67a8     0x54  ecc.o [5]
  .rodata            const       0x5'67fc     0x54  ecc.o [5]
  .rodata            const       0x5'6850     0x54  ecc.o [5]
  .rodata            const       0x5'68a4     0x54  ecc.o [5]
  .rodata            const       0x5'68f8     0x54  ecc.o [5]
  .rodata            const       0x5'694c     0x54  ecc.o [5]
  .rodata            const       0x5'69a0     0x54  ecc.o [5]
  .rodata            const       0x5'69f4     0x50  hxsc_memmgr.o [1]
  .rodata            const       0x5'6a44     0x50  der_asn1_maps.o [5]
  .rodata            const       0x5'6a94     0x50  iar_Stoulx.o [2]
  .rodata            const       0x5'6ae4     0x4c  hxsc_memmgr.o [1]
  .rodata            const       0x5'6b30     0x4c  anubis.o [5]
  .rodata            const       0x5'6b7c     0x48  hxsc_memmgr.o [1]
  .rodata            const       0x5'6bc4     0x48  sha256.o [5]
  .rodata            const       0x5'6c0c     0x48  blowfish.o [5]
  .rodata            const       0x5'6c54     0x48  blowfish.o [5]
  .rodata            const       0x5'6c9c     0x44  ecc.o [5]
  .rodata            const       0x5'6ce0     0x48  khazad.o [5]
  .rodata            const       0x5'6d28     0x44  ecc.o [5]
  .rodata            const       0x5'6d6c     0x44  ecc.o [5]
  .rodata            const       0x5'6db0     0x44  ecc.o [5]
  .rodata            const       0x5'6df4     0x44  ecc.o [5]
  .rodata            const       0x5'6e38     0x44  ecc.o [5]
  .rodata            const       0x5'6e7c     0x44  ecc.o [5]
  .rodata            const       0x5'6ec0     0x44  ecc.o [5]
  .rodata            const       0x5'6f04     0x44  ecc.o [5]
  .rodata            const       0x5'6f48     0x44  ecc.o [5]
  .rodata            const       0x5'6f8c     0x44  ecc.o [5]
  .rodata            const       0x5'6fd0     0x44  ecc.o [5]
  .rodata            const       0x5'7014     0x44  ecc.o [5]
  .rodata            const       0x5'7058     0x44  ecc.o [5]
  .rodata            const       0x5'709c     0x44  ecc.o [5]
  .rodata            const       0x5'70e0     0x44  ecc.o [5]
  .rodata            const       0x5'7124     0x44  noekeon.o [5]
  .rodata            const       0x5'7168     0x44  bn_mp_radix_smap.o [6]
  .rodata            const       0x5'71ac     0x40  hxsc_memmgr.o [1]
  .rodata            const       0x5'71ec     0x40  am_hal_mcuctrl.o [4]
  .rodata            const       0x5'722c     0x40  am_hal_mcuctrl.o [4]
  .rodata            const       0x5'726c     0x40  ecc.o [5]
  .rodata            const       0x5'72ac     0x40  ecc.o [5]
  .rodata            const       0x5'72ec     0x40  ecc.o [5]
  .rodata            const       0x5'732c     0x40  ecc.o [5]
  .rodata            const       0x5'736c     0x40  ecc.o [5]
  .rodata            const       0x5'73ac     0x40  ecc.o [5]
  .rodata            const       0x5'73ec     0x40  ecc.o [5]
  .rodata            const       0x5'742c     0x40  ecc.o [5]
  .rodata            const       0x5'746c     0x40  ecc.o [5]
  .rodata            const       0x5'74ac     0x40  ecc.o [5]
  .rodata            const       0x5'74ec     0x40  ecc.o [5]
  .rodata            const       0x5'752c     0x40  ecc.o [5]
  .rodata            const       0x5'756c     0x40  ecc.o [5]
  .rodata            const       0x5'75ac     0x40  ecc.o [5]
  .rodata            const       0x5'75ec     0x40  kseed.o [5]
  .rodata            const       0x5'762c     0x40  bn_mp_cnt_lsb.o [6]
  .rodata            const       0x5'766c     0x3c  sha256.o [5]
  .rodata            const       0x5'76a8     0x3c  ecc.o [5]
  .rodata            const       0x5'76e4     0x3c  ecc.o [5]
  .rodata            const       0x5'7720     0x3c  ecc.o [5]
  .rodata            const       0x5'775c     0x3c  ecc.o [5]
  .rodata            const       0x5'7798     0x3c  ecc.o [5]
  .rodata            const       0x5'77d4     0x3c  ecc.o [5]
  .rodata            const       0x5'7810     0x3c  ecc.o [5]
  .rodata            const       0x5'784c     0x3c  ecc.o [5]
  .rodata            const       0x5'7888     0x3c  ecc.o [5]
  .rodata            const       0x5'78c4     0x3c  ecc.o [5]
  .rodata            const       0x5'7900     0x3c  sha1.o [5]
  .rodata            const       0x5'793c     0x38  des.o [5]
  .text              ro code     0x5'7974     0x38  packbits_init_single.o [8]
  .rodata            const       0x5'79ac     0x34  am_hal_gpio.o [4]
  .rodata            const       0x5'79e0     0x34  am_hal_gpio.o [4]
  .rodata            const       0x5'7a14     0x34  am_hal_gpio.o [4]
  .rodata            const       0x5'7a48     0x34  ecc.o [5]
  .rodata            const       0x5'7a7c     0x34  ecc.o [5]
  .rodata            const       0x5'7ab0     0x34  ecc.o [5]
  .rodata            const       0x5'7ae4     0x34  ecc.o [5]
  .rodata            const       0x5'7b18     0x34  ecc.o [5]
  .rodata            const       0x5'7b4c     0x34  ecc.o [5]
  .rodata            const       0x5'7b80     0x34  ecc.o [5]
  .rodata            const       0x5'7bb4     0x34  ecc.o [5]
  .rodata            const       0x5'7be8     0x34  ecc.o [5]
  .rodata            const       0x5'7c1c     0x34  ecc.o [5]
  .rodata            const       0x5'7c50     0x34  ecc.o [5]
  .rodata            const       0x5'7c84     0x34  ecc.o [5]
  .rodata            const       0x5'7cb8     0x34  ecc.o [5]
  .rodata            const       0x5'7cec     0x34  ecc.o [5]
  .rodata            const       0x5'7d20     0x34  ecc.o [5]
  .rodata            const       0x5'7d54     0x34  ecc.o [5]
  .rodata            const       0x5'7d88     0x34  ecc.o [5]
  .rodata            const       0x5'7dbc     0x34  ecc.o [5]
  .rodata            const       0x5'7df0     0x34  ecc.o [5]
  .rodata            const       0x5'7e24     0x34  ecc.o [5]
  .rodata            const       0x5'7e58     0x34  chacha20.o [5]
  .rodata            const       0x5'7e8c     0x34  rc4.o [5]
  .rodata            const       0x5'7ec0     0x34  sober128.o [5]
  .rodata            const       0x5'7ef4     0x30  cardApp.o [1]
  .rodata            const       0x5'7f24     0x30  cardApp.o [1]
  .rodata            const       0x5'7f54     0x30  am_hal_global.o [4]
  .rodata            const       0x5'7f84     0x2c  hxsc_crypto.o [1]
  .rodata            const       0x5'7fb0     0x30  camellia.o [5]
  .rodata            const       0x5'7fe0     0x30  des.o [5]
  .rodata            const       0x5'8010     0x30  sha1.o [5]
  .rodata            const       0x5'8040     0x2c  hxsc_crypto.o [1]
  .rodata            const       0x5'806c     0x2c  hxsc_crypto.o [1]
  .rodata            const       0x5'8098     0x2c  ecc.o [5]
  .rodata            const       0x5'80c4     0x2c  ecc.o [5]
  .rodata            const       0x5'80f0     0x2c  ecc.o [5]
  .rodata            const       0x5'811c     0x2c  ecc.o [5]
  .rodata            const       0x5'8148     0x2c  ecc.o [5]
  .rodata            const       0x5'8174     0x2c  ecc.o [5]
  .rodata            const       0x5'81a0     0x2c  ecc.o [5]
  .rodata            const       0x5'81cc     0x2c  ecc.o [5]
  .rodata            const       0x5'81f8     0x2c  ecc.o [5]
  .rodata            const       0x5'8224     0x2c  ecc.o [5]
  .rodata            const       0x5'8250     0x28  cardApp.o [1]
  .rodata            const       0x5'8278     0x28  cardApp.o [1]
  .rodata            const       0x5'82a0     0x28  cardApp.o [1]
  .rodata            const       0x5'82c8     0x28  aes.o [5]
  .rodata            const       0x5'82f0     0x28  skipjack.o [5]
  .rodata            const       0x5'8318     0x28  skipjack.o [5]
  .rodata            const       0x5'8340     0x28  chacha20.o [5]
  .rodata            const       0x5'8368     0x28  fortuna.o [5]
  .rodata            const       0x5'8390     0x28  rc4.o [5]
  .rodata            const       0x5'83b8     0x28  sober128.o [5]
  .rodata            const       0x5'83e0     0x28  sprng.o [5]
  .rodata            const       0x5'8408     0x28  yarrow.o [5]
  .text              ro code     0x5'8430     0x28  data_init.o [8]
  .rodata            const       0x5'8458     0x24  cardApp.o [1]
  .rodata            const       0x5'847c     0x24  hxsc_crypto.o [1]
  .rodata            const       0x5'84a0     0x24  hxsc_crypto.o [1]
  .rodata            const       0x5'84c4     0x24  hxsc_crypto.o [1]
  .rodata            const       0x5'84e8     0x24  hxsc_crypto.o [1]
  .rodata            const       0x5'850c     0x24  hxsc_crypto.o [1]
  .rodata            const       0x5'8530     0x24  hxsc_crypto.o [1]
  .rodata            const       0x5'8554     0x24  xscanfsmall_nomb.o [2]
  .text              ro code     0x5'8578     0x22  fpinit_M.o [7]
  .iar.init_table    const       0x5'859c     0x20  - Linker created -
  .rodata            const       0x5'85bc     0x20  cardApp.o [1]
  .rodata            const       0x5'85dc     0x20  cardApp.o [1]
  .rodata            const       0x5'85fc     0x20  cardApp.o [1]
  .rodata            const       0x5'861c     0x20  cardApp.o [1]
  .rodata            const       0x5'863c     0x20  hxsc_crypto.o [1]
  .rodata            const       0x5'865c     0x20  hxsc_crypto.o [1]
  .rodata            const       0x5'867c     0x20  hxsc_crypto.o [1]
  .rodata            const       0x5'869c     0x20  hxsc_crypto.o [1]
  .rodata            const       0x5'86bc     0x20  des.o [5]
  .rodata            const       0x5'86dc     0x20  kasumi.o [5]
  .rodata            const       0x5'86fc     0x20  twofish.o [5]
  .rodata            const       0x5'871c     0x20  pk_get_oid.o [5]
  .rodata            const       0x5'873c     0x20  bn_mp_kronecker.o [6]
  .rodata            const       0x5'875c     0x20  der_asn1_maps.o [5]
  .rodata            const       0x5'877c     0x20  der_decode_asn1_identifier.o [5]
  .text              ro code     0x5'879c     0x1e  startup_iar.o [1]
  .text              ro code     0x5'87ba      0xc  cstartup_M.o [8]
  .text              ro code     0x5'87c8     0x1e  cmain.o [8]
  .text              ro code     0x5'87e6      0x4  exit.o [2]
  .text              ro code     0x5'87ec      0xa  cexit.o [8]
  .rodata            const       0x5'87f8     0x1c  cardApp.o [1]
  .rodata            const       0x5'8814     0x1c  cardApp.o [1]
  .rodata            const       0x5'8830     0x1c  hxsc_crypto.o [1]
  .rodata            const       0x5'884c     0x1c  hxsc_crypto.o [1]
  .rodata            const       0x5'8868     0x1c  hxsc_crypto.o [1]
  .rodata            const       0x5'8884     0x1c  hxsc_crypto.o [1]
  .rodata            const       0x5'88a0     0x1c  hxsc_crypto.o [1]
  .rodata            const       0x5'88bc     0x1c  hxsc_crypto.o [1]
  .rodata            const       0x5'88d8     0x1c  skipjack.o [5]
  .rodata            const       0x5'88f4     0x18  cardApp.o [1]
  .rodata            const       0x5'890c     0x18  cardApp.o [1]
  .rodata            const       0x5'8924     0x18  cardApp.o [1]
  .rodata            const       0x5'893c     0x18  hxsc_crypto.o [1]
  .rodata            const       0x5'8954     0x18  hxsc_debug.o [1]
  .rodata            const       0x5'896c     0x18  hxsc_debug.o [1]
  .rodata            const       0x5'8984     0x18  hxsc_debug.o [1]
  .rodata            const       0x5'899c     0x18  hxsc_debug.o [1]
  .rodata            const       0x5'89b4     0x18  ecc_find_curve.o [5]
  .rodata            const       0x5'89cc     0x18  ecc_find_curve.o [5]
  .rodata            const       0x5'89e4     0x18  ecc_find_curve.o [5]
  .rodata            const       0x5'89fc     0x18  ecc_find_curve.o [5]
  .rodata            const       0x5'8a14     0x18  ecc_find_curve.o [5]
  .rodata            const       0x5'8a2c     0x18  ecc_find_curve.o [5]
  .rodata            const       0x5'8a44     0x18  ecc_find_curve.o [5]
  .rodata            const       0x5'8a5c     0x18  ecc_find_curve.o [5]
  .rodata            const       0x5'8a74     0x18  ecc_find_curve.o [5]
  .rodata            const       0x5'8a8c     0x18  ecc_find_curve.o [5]
  .rodata            const       0x5'8aa4     0x18  ecc_find_curve.o [5]
  .rodata            const       0x5'8abc     0x18  ecc_find_curve.o [5]
  .rodata            const       0x5'8ad4     0x18  ecc_find_curve.o [5]
  .rodata            const       0x5'8aec     0x18  ecc_find_curve.o [5]
  .rodata            const       0x5'8b04     0x18  ltm_desc.o [5]
  .rodata            const       0x5'8b1c     0x18  ecc.o [5]
  .rodata            const       0x5'8b34     0x18  ecc.o [5]
  .rodata            const       0x5'8b4c     0x18  ecc.o [5]
  .rodata            const       0x5'8b64     0x18  ecc.o [5]
  .rodata            const       0x5'8b7c     0x18  ecc.o [5]
  .rodata            const       0x5'8b94     0x18  ecc.o [5]
  .rodata            const       0x5'8bac     0x18  ecc.o [5]
  .rodata            const       0x5'8bc4     0x18  ecc.o [5]
  .rodata            const       0x5'8bdc     0x18  ecc.o [5]
  .rodata            const       0x5'8bf4     0x18  ecc.o [5]
  .rodata            const       0x5'8c0c     0x18  ecc.o [5]
  .rodata            const       0x5'8c24     0x18  ecc.o [5]
  .rodata            const       0x5'8c3c     0x18  ecc.o [5]
  .rodata            const       0x5'8c54     0x18  ecc.o [5]
  .rodata            const       0x5'8c6c     0x18  bn_mp_prime_is_prime.o [6]
  .rodata            const       0x5'8c84     0x18  bn_mp_prime_is_prime.o [6]
  .rodata            const       0x5'8c9c     0x18  pk_get_oid.o [5]
  .rodata            const       0x5'8cb4     0x14  am_util_stdio.o [1]
  .rodata            const       0x5'8cc8     0x14  cardApp.o [1]
  .rodata            const       0x5'8cdc     0x14  cardApp.o [1]
  .rodata            const       0x5'8cf0     0x14  cardApp.o [1]
  .rodata            const       0x5'8d04     0x14  cardApp.o [1]
  .rodata            const       0x5'8d18     0x14  hxsc_crypto.o [1]
  .rodata            const       0x5'8d2c     0x14  hxsc_crypto.o [1]
  .rodata            const       0x5'8d40     0x14  hxsc_crypto.o [1]
  .rodata            const       0x5'8d54     0x14  ecc_find_curve.o [5]
  .rodata            const       0x5'8d68     0x14  ecc_find_curve.o [5]
  .rodata            const       0x5'8d7c     0x14  ecc_find_curve.o [5]
  .rodata            const       0x5'8d90     0x14  ecc_find_curve.o [5]
  .rodata            const       0x5'8da4     0x14  ecc_find_curve.o [5]
  .rodata            const       0x5'8db8     0x14  ecc.o [5]
  .rodata            const       0x5'8dcc     0x14  ecc.o [5]
  .rodata            const       0x5'8de0     0x14  ecc.o [5]
  .rodata            const       0x5'8df4     0x14  ecc.o [5]
  .rodata            const       0x5'8e08     0x14  ecc.o [5]
  .rodata            const       0x5'8e1c     0x14  ecc_ssh_ecdsa_encode_name.o [5]
  .rodata            const       0x5'8e30     0x14  ecc_ssh_ecdsa_encode_name.o [5]
  .rodata            const       0x5'8e44     0x14  ecc_ssh_ecdsa_encode_name.o [5]
  .rodata            const       0x5'8e58     0x14  ecc_ssh_ecdsa_encode_name.o [5]
  .rodata            const       0x5'8e6c     0x14  blowfish.o [5]
  .rodata            const       0x5'8e80     0x14  blowfish.o [5]
  .rodata            const       0x5'8e94     0x14  camellia.o [5]
  .rodata            const       0x5'8ea8     0x14  camellia.o [5]
  .rodata            const       0x5'8ebc     0x14  safer.o [5]
  .rodata            const       0x5'8ed0     0x14  safer.o [5]
  .rodata            const       0x5'8ee4     0x14  safer.o [5]
  .rodata            const       0x5'8ef8     0x14  safer.o [5]
  .rodata            const       0x5'8f0c     0x14  safer.o [5]
  .rodata            const       0x5'8f20     0x14  safer.o [5]
  .rodata            const       0x5'8f34     0x14  skipjack.o [5]
  .rodata            const       0x5'8f48     0x14  skipjack.o [5]
  .rodata            const       0x5'8f5c     0x14  chacha_setup.o [5]
  .rodata            const       0x5'8f70     0x14  chacha_setup.o [5]
  .rodata            const       0x5'8f84     0x14  pk_get_oid.o [5]
  .rodata            const       0x5'8f98     0x14  pk_get_oid.o [5]
  .rodata            const       0x5'8fac     0x14  pk_get_oid.o [5]
  .rodata            const       0x5'8fc0     0x10  am_util_id.o [1]
  .rodata            const       0x5'8fd0     0x10  cardApp.o [1]
  .rodata            const       0x5'8fe0     0x10  cardApp.o [1]
  .rodata            const       0x5'8ff0     0x10  cardApp.o [1]
  .rodata            const       0x5'9000     0x10  cardApp.o [1]
  .rodata            const       0x5'9010     0x10  hxsc_crypto.o [1]
  .rodata            const       0x5'9020     0x10  hxsc_crypto.o [1]
  .rodata            const       0x5'9030     0x10  hxsc_crypto.o [1]
  .rodata            const       0x5'9040     0x10  hxsc_memmgr.o [1]
  .rodata            const       0x5'9050     0x10  hxsc_memmgr.o [1]
  .rodata            const       0x5'9060     0x10  ecc_find_curve.o [5]
  .rodata            const       0x5'9070     0x10  ecc_find_curve.o [5]
  .rodata            const       0x5'9080     0x10  ecc_find_curve.o [5]
  .rodata            const       0x5'9090     0x10  ecc_find_curve.o [5]
  .rodata            const       0x5'90a0     0x10  ecc_find_curve.o [5]
  .rodata            const       0x5'90b0     0x10  ecc_find_curve.o [5]
  .rodata            const       0x5'90c0     0x10  ecc_find_curve.o [5]
  .rodata            const       0x5'90d0     0x10  ecc_find_curve.o [5]
  .rodata            const       0x5'90e0     0x10  ecc_find_curve.o [5]
  .rodata            const       0x5'90f0     0x10  ecc_find_curve.o [5]
  .rodata            const       0x5'9100     0x10  ecc_find_curve.o [5]
  .rodata            const       0x5'9110     0x10  ecc_find_curve.o [5]
  .rodata            const       0x5'9120     0x10  ecc_find_curve.o [5]
  .rodata            const       0x5'9130     0x10  ecc_find_curve.o [5]
  .rodata            const       0x5'9140     0x10  ecc_find_curve.o [5]
  .rodata            const       0x5'9150     0x10  ecc_sign_hash.o [5]
  .rodata            const       0x5'9160     0x10  ecc.o [5]
  .rodata            const       0x5'9170     0x10  ecc_ssh_ecdsa_encode_name.o [5]
  .rodata            const       0x5'9180     0x10  ecc_ssh_ecdsa_encode_name.o [5]
  .rodata            const       0x5'9190     0x10  ecc_ssh_ecdsa_encode_name.o [5]
  .rodata            const       0x5'91a0     0x10  anubis.o [5]
  .rodata            const       0x5'91b0     0x10  anubis.o [5]
  .rodata            const       0x5'91c0     0x10  cast5.o [5]
  .rodata            const       0x5'91d0     0x10  cast5.o [5]
  .rodata            const       0x5'91e0     0x10  des.o [5]
  .rodata            const       0x5'91f0     0x10  idea.o [5]
  .rodata            const       0x5'9200     0x10  idea.o [5]
  .rodata            const       0x5'9210     0x10  kasumi.o [5]
  .rodata            const       0x5'9220     0x10  kasumi.o [5]
  .rodata            const       0x5'9230     0x10  khazad.o [5]
  .rodata            const       0x5'9240     0x10  khazad.o [5]
  .rodata            const       0x5'9250     0x10  kseed.o [5]
  .rodata            const       0x5'9260     0x10  kseed.o [5]
  .rodata            const       0x5'9270     0x10  multi2.o [5]
  .rodata            const       0x5'9280     0x10  multi2.o [5]
  .rodata            const       0x5'9290     0x10  multi2.o [5]
  .rodata            const       0x5'92a0     0x10  noekeon.o [5]
  .rodata            const       0x5'92b0     0x10  noekeon.o [5]
  .rodata            const       0x5'92c0     0x10  safer.o [5]
  .rodata            const       0x5'92d0     0x10  saferp.o [5]
  .rodata            const       0x5'92e0     0x10  saferp.o [5]
  .rodata            const       0x5'92f0     0x10  serpent.o [5]
  .rodata            const       0x5'9300     0x10  serpent.o [5]
  .rodata            const       0x5'9310     0x10  twofish.o [5]
  .rodata            const       0x5'9320     0x10  twofish.o [5]
  .rodata            const       0x5'9330     0x10  xtea.o [5]
  .rodata            const       0x5'9340     0x10  xtea.o [5]
  .rodata            const       0x5'9350     0x10  sober128.o [5]
  .rodata            const       0x5'9360      0xc  hxsc_crypto.o [1]
  .rodata            const       0x5'936c      0xc  hxsc_crypto.o [1]
  .rodata            const       0x5'9378      0xc  hxsc_crypto.o [1]
  .rodata            const       0x5'9384      0xc  ecc_find_curve.o [5]
  .rodata            const       0x5'9390      0xc  ecc_find_curve.o [5]
  .rodata            const       0x5'939c      0xc  ecc_find_curve.o [5]
  .rodata            const       0x5'93a8      0xc  ecc_find_curve.o [5]
  .rodata            const       0x5'93b4      0xc  ecc_find_curve.o [5]
  .rodata            const       0x5'93c0      0xc  ecc_find_curve.o [5]
  .rodata            const       0x5'93cc      0xc  ltm_desc.o [5]
  .rodata            const       0x5'93d8      0xc  aes.o [5]
  .rodata            const       0x5'93e4      0xc  aes.o [5]
  .rodata            const       0x5'93f0      0xc  aes.o [5]
  .rodata            const       0x5'93fc      0xc  anubis.o [5]
  .rodata            const       0x5'9408      0xc  blowfish.o [5]
  .rodata            const       0x5'9414      0xc  camellia.o [5]
  .rodata            const       0x5'9420      0xc  khazad.o [5]
  .rodata            const       0x5'942c      0xc  rc5.o [5]
  .rodata            const       0x5'9438      0xc  rc5.o [5]
  .rodata            const       0x5'9444      0xc  rc6.o [5]
  .rodata            const       0x5'9450      0xc  rc6.o [5]
  .rodata            const       0x5'945c      0xc  safer.o [5]
  .rodata            const       0x5'9468      0xc  safer.o [5]
  .rodata            const       0x5'9474      0xc  safer.o [5]
  .rodata            const       0x5'9480      0xc  safer.o [5]
  .rodata            const       0x5'948c      0xc  saferp.o [5]
  .rodata            const       0x5'9498      0xc  skipjack.o [5]
  .rodata            const       0x5'94a4      0xc  chacha20.o [5]
  .rodata            const       0x5'94b0      0xc  chacha20.o [5]
  .rodata            const       0x5'94bc      0xc  chacha20.o [5]
  .rodata            const       0x5'94c8      0xc  chacha20.o [5]
  .rodata            const       0x5'94d4      0xc  chacha20.o [5]
  .rodata            const       0x5'94e0      0xc  rc4.o [5]
  .rodata            const       0x5'94ec      0xc  rc4.o [5]
  .rodata            const       0x5'94f8      0xc  rc4.o [5]
  .rodata            const       0x5'9504      0xc  rc4.o [5]
  .rodata            const       0x5'9510      0xc  sober128.o [5]
  .rodata            const       0x5'951c      0xc  sober128.o [5]
  .rodata            const       0x5'9528      0xc  sober128.o [5]
  .rodata            const       0x5'9534      0xc  sober128.o [5]
  .rodata            const       0x5'9540      0xc  der_encode_generalizedtime.o [5]
  .rodata            const       0x5'954c      0xc  der_encode_utctime.o [5]
  .rodata            const       0x5'9558      0x8  am_util_id.o [1]
  .rodata            const       0x5'9560      0x8  am_util_id.o [1]
  .rodata            const       0x5'9568      0x8  am_util_id.o [1]
  .rodata            const       0x5'9570      0x8  am_util_id.o [1]
  .rodata            const       0x5'9578      0x8  am_util_id.o [1]
  .rodata            const       0x5'9580      0x8  cardApp.o [1]
  .rodata            const       0x5'9588      0x8  cardApp.o [1]
  .rodata            const       0x5'9590      0x8  hxsc_crypto.o [1]
  .rodata            const       0x5'9598      0x8  hxsc_crypto.o [1]
  .rodata            const       0x5'95a0      0x8  sha256.o [5]
  .rodata            const       0x5'95a8      0x8  sha256.o [5]
  .rodata            const       0x5'95b0      0x8  anubis.o [5]
  .rodata            const       0x5'95b8      0x8  cast5.o [5]
  .rodata            const       0x5'95c0      0x8  des.o [5]
  .rodata            const       0x5'95c8      0x8  des.o [5]
  .rodata            const       0x5'95d0      0x8  idea.o [5]
  .rodata            const       0x5'95d8      0x8  kasumi.o [5]
  .rodata            const       0x5'95e0      0x8  khazad.o [5]
  .rodata            const       0x5'95e8      0x8  kseed.o [5]
  .rodata            const       0x5'95f0      0x8  multi2.o [5]
  .rodata            const       0x5'95f8      0x8  noekeon.o [5]
  .rodata            const       0x5'9600      0x8  rc2.o [5]
  .rodata            const       0x5'9608      0x8  rc2.o [5]
  .rodata            const       0x5'9610      0x8  safer.o [5]
  .rodata            const       0x5'9618      0x8  safer.o [5]
  .rodata            const       0x5'9620      0x8  safer.o [5]
  .rodata            const       0x5'9628      0x8  safer.o [5]
  .rodata            const       0x5'9630      0x8  safer.o [5]
  .rodata            const       0x5'9638      0x8  safer.o [5]
  .rodata            const       0x5'9640      0x8  safer.o [5]
  .rodata            const       0x5'9648      0x8  safer.o [5]
  .rodata            const       0x5'9650      0x8  saferp.o [5]
  .rodata            const       0x5'9658      0x8  serpent.o [5]
  .rodata            const       0x5'9660      0x8  twofish.o [5]
  .rodata            const       0x5'9668      0x8  xtea.o [5]
  .rodata            const       0x5'9670      0x8  sha1.o [5]
  .rodata            const       0x5'9678      0x8  sha1.o [5]
  .rodata            const       0x5'9680      0x8  fortuna.o [5]
  .rodata            const       0x5'9688      0x8  sprng.o [5]
  .rodata            const       0x5'9690      0x8  yarrow.o [5]
  .rodata            const       0x5'9698      0x4  hxsc_crypto.o [1]
  .rodata            const       0x5'969c      0x4  am_hal_cachectrl.o [4]
  .rodata            const       0x5'96a0      0x4  am_hal_global.o [4]
  .rodata            const       0x5'96a4      0x4  sha256.o [5]
  .rodata            const       0x5'96a8      0x4  am_hal_gpio.o [4]
  .rodata            const       0x5'96ac      0x4  am_hal_gpio.o [4]
  .rodata            const       0x5'96b0      0x4  am_bsp_pins.o [3]
  .rodata            const       0x5'96b4      0x4  aes.o [5]
  .rodata            const       0x5'96b8      0x4  des.o [5]
  .rodata            const       0x5'96bc      0x4  des.o [5]
  .rodata            const       0x5'96c0      0x4  rc2.o [5]
  .rodata            const       0x5'96c4      0x4  rc5.o [5]
  .rodata            const       0x5'96c8      0x4  rc6.o [5]
  .rodata            const       0x5'96cc      0x4  sha1.o [5]
  .rodata            const       0x5'96d0      0x4  rc4.o [5]
  .rodata            const       0x5'96d4      0x4  sprng.o [5]
  .rodata            const       0x5'96d8      0x4  chacha_setup.o [5]
  .rodata            const       0x5'96dc      0x4  chacha_setup.o [5]
  .rodata            const       0x5'96e0      0x4  bn_mp_radix_smap.o [6]
  .rodata            const       0x5'96e4      0x4  bn_mp_radix_smap.o [6]
  .rodata            const       0x5'96e8      0x4  der_encode_generalizedtime.o [5]
  .rodata            const       0x5'96ec      0x4  der_encode_utctime.o [5]
  .rodata            const       0x5'96f0      0x4  der_asn1_maps.o [5]
  .rodata            const       0x5'96f4      0x4  der_asn1_maps.o [5]
  .rodata            const       0x5'96f8      0x4  der_decode_asn1_identifier.o [5]
  .rodata            const       0x5'96fc      0x0  zero_init3.o [8]
  .rodata            const       0x5'96fc      0x0  packbits_init_single.o [8]
  Initializer bytes  const       0x5'96fc    0x633  <for P2-1>
                               - 0x5'9d2f  0x4dc2f

"A1":                                       0x4000
  .noinit            uninit   0x1000'0000   0x4000  startup_iar.o [1]
                            - 0x1000'4000   0x4000

"P2", part 1 of 3:                           0x714
  P2-1                        0x1000'4000    0x714  <Init block>
    .data            inited   0x1000'4000    0x100  hxsc_crypto.o [1]
    .data            inited   0x1000'4100      0x4  hxsc_crypto.o [1]
    .data            inited   0x1000'4104    0x588  hxsc_crypto.o [1]
    .data            inited   0x1000'468c      0x4  hxsc_crypto.o [1]
    .data            inited   0x1000'4690     0x10  hxsc_crypto.o [1]
    .data            inited   0x1000'46a0      0x4  hxsc_memmgr.o [1]
    .data            inited   0x1000'46a4     0x28  am_bsp.o [3]
    .data            inited   0x1000'46cc     0x30  am_hal_security.o [4]
    .data            inited   0x1000'46fc      0x4  bncore.o [6]
    .data            inited   0x1000'4700      0x4  bncore.o [6]
    .data            inited   0x1000'4704      0x4  bncore.o [6]
    .data            inited   0x1000'4708      0x4  bncore.o [6]
    .data            inited   0x1000'470c      0x8  rand.o [2]
                            - 0x1000'4714    0x714

"P2", part 2 of 3:                         0x1ec80
  .bss               zero     0x1000'4714  0x1a680  hxsc_memmgr.o [1]
  .bss               zero     0x1001'ed98   0x1ef0  hxsc_crypto.o [1]
  .bss               zero     0x1002'0c88    0xdd0  crypt_hash_descriptor.o [5]
  .bss               zero     0x1002'1a58    0xdd0  crypt_cipher_descriptor.o [5]
  .bss               zero     0x1002'2828    0x550  crypt_prng_descriptor.o [5]
  .bss               zero     0x1002'2d78    0x1d8  dlmalloc.o [2]
  .bss               zero     0x1002'2f50    0x100  am_util_stdio.o [1]
  .bss               zero     0x1002'3050    0x100  hxsc_crypto.o [1]
  .bss               zero     0x1002'3150     0xd4  crypt_ltc_mp_descriptor.o [5]
  .bss               zero     0x1002'3224     0x84  rand.o [2]
  .bss               zero     0x1002'32a8     0x80  hxsc_crypto.o [1]
  .bss               zero     0x1002'3328     0x18  dlmalloc.o [2]
  .bss               zero     0x1002'3340     0x10  hxsc_memmgr.o [1]
  .bss               zero     0x1002'3350      0x4  am_util_stdio.o [1]
  .bss               zero     0x1002'3354      0x4  cardApp.o [1]
  .bss               zero     0x1002'3358      0x4  hxsc_debug.o [1]
  .bss               zero     0x1002'335c      0x4  hxsc_debug.o [1]
  .bss               zero     0x1002'3360      0x4  hxsc_debug.o [1]
  .bss               zero     0x1002'3364      0x4  hxsc_debug.o [1]
  .bss               zero     0x1002'3368      0x4  hxsc_memmgr.o [1]
  .bss               zero     0x1002'336c      0x4  hxsc_memmgr.o [1]
  .bss               zero     0x1002'3370      0x4  hxsc_memmgr.o [1]
  .bss               zero     0x1002'3374      0x4  hxsc_memmgr.o [1]
  .bss               zero     0x1002'3378      0x4  am_bsp.o [3]
  .bss               zero     0x1002'337c      0x4  bn_mp_rand.o [6]
  .bss               zero     0x1002'3380      0x4  bn_mp_rand.o [6]
  .bss               zero     0x1002'3384      0x4  am_hal_reset.o [4]
  .bss               zero     0x1002'3388      0x4  xgetmemchunk.o [2]
  .bss               zero     0x1002'338c      0x4  xfail_s.o [2]
  .bss               zero     0x1002'3390      0x1  am_util_stdio.o [1]
                            - 0x1002'3391  0x1ec7d

"P2", part 3 of 3:                             0x0
  HEAP                        0x1002'3398      0x0  <Block>

Unused ranges:

         From           To      Size
         ----           --      ----
     0x5'9d2f     0xf'c000  0xa'22d2
  0x1002'3394  0x1002'3397       0x4
  0x1002'3398  0x1006'0000  0x3'cc69


*******************************************************************************
*** INIT TABLE
***

          Address      Size
          -------      ----
Zero (__iar_zero_init3)
    1 destination range, total size 0x1ec7d:
          0x1000'4714  0x1ec7d

Copy/packbits (__iar_packbits_init_single3)
    1 source range, total size 0x633 (87% of destination):
             0x5'96fc    0x633
    1 destination range, total size 0x714:
          0x1000'4000    0x714



*******************************************************************************
*** MODULE SUMMARY
***

    Module                                 ro code  ro data  rw data
    ------                                 -------  -------  -------
command line/config:
    ----------------------------------------------------------------
    Total:

D:\ESSEK_WORKSPACES\bsd17.1_B\evb_emb\hxcard\Evb\cardApp\iar\bin: [1]
    am_util_faultisr.o                         216
    am_util_id.o                               300       56
    am_util_stdio.o                          2 240       20      261
    cardApp.o                                  632      776        4
    hxsc_crypto.o                            1 280    2 318   10 000
    hxsc_debug.o                                80       96       16
    hxsc_memmgr.o                              764      327  108 196
    startup_iar.o                               34      256   16 384
    ----------------------------------------------------------------
    Total:                                   5 546    3 849  134 861

dl7M_tln.a: [2]
    abort.o                                      6
    dlmalloc.o                               7 520               496
    exit.o                                       4
    heaptramp0.o                                 4
    iar_Stolx.o                                130
    iar_Stoulx.o                               330       80
    qsort.o                                  1 228
    rand.o                                     164        8      140
    snprintf.o                                  68
    sscanf.o                                    40
    toupper.o                                   12
    xfail_s.o                                   64                 4
    xgetmemchunk.o                              44                 4
    xprintftiny.o                              318
    xscanfsmall_nomb.o                       1 428       36
    xsnprout.o                                  26
    xsscin.o                                    30
    ----------------------------------------------------------------
    Total:                                  11 416      124      644

libam_bsp.a: [3]
    am_bsp.o                                   184       35       44
    am_bsp_pins.o                                         4
    ----------------------------------------------------------------
    Total:                                     184       39       44

libam_hal.a: [4]
    am_hal_cachectrl.o                          92        4
    am_hal_clkgen.o                            296
    am_hal_flash.o                              88       96
    am_hal_global.o                                      52
    am_hal_gpio.o                              936      364
    am_hal_interrupt.o                          20
    am_hal_itm.o                               232
    am_hal_mcuctrl.o                           468      128
    am_hal_pwrctrl.o                           172
    am_hal_reset.o                                                 4
    am_hal_rtc.o                                48
    am_hal_security.o                          200       42       48
    am_hal_tpiu.o                              180
    ----------------------------------------------------------------
    Total:                                   2 732      686       52

libtomcrypt.a: [5]
    aes.o                                    2 928   17 900
    anubis.o                                 2 140    7 440
    blowfish.o                               1 442    4 396
    camellia.o                              11 652    4 572
    cast5.o                                  4 022    8 444
    chacha20.o                                 964      152
    chacha_crypt.o                           1 162
    chacha_done.o                               18
    chacha_ivctr64.o                            58
    chacha_keystream.o                          42
    chacha_setup.o                             236       48
    compare_testvector.o                        34
    crypt_cipher_descriptor.o                                  3 536
    crypt_cipher_is_valid.o                     32
    crypt_find_hash.o                           60
    crypt_find_prng.o                           60
    crypt_hash_descriptor.o                                    3 536
    crypt_hash_is_valid.o                       32
    crypt_inits.o                               48
    crypt_ltc_mp_descriptor.o                                    212
    crypt_prng_descriptor.o                                    1 360
    crypt_prng_is_valid.o                       32
    crypt_register_all_ciphers.o               256
    crypt_register_all_hashes.o                 28
    crypt_register_all_prngs.o                  68
    crypt_register_cipher.o                    100
    crypt_register_hash.o                       96
    crypt_register_prng.o                       96
    ctr_done.o                                  48
    ctr_encrypt.o                              412
    ctr_start.o                                300
    der_asn1_maps.o                                     120
    der_decode_asn1_identifier.o               324       36
    der_decode_asn1_length.o                   106
    der_decode_bit_string.o                    194
    der_decode_boolean.o                        50
    der_decode_choice.o                      1 034
    der_decode_custom_type.o                 2 044
    der_decode_generalizedtime.o               680
    der_decode_ia5_string.o                    152
    der_decode_integer.o                       168
    der_decode_object_identifier.o             242
    der_decode_octet_string.o                  138
    der_decode_printable_string.o              152
    der_decode_raw_bit_string.o                242
    der_decode_sequence_ex.o                    18
    der_decode_sequence_multi.o                266
    der_decode_short_integer.o                  70
    der_decode_teletex_string.o                152
    der_decode_utctime.o                       668
    der_decode_utf8_string.o                   234
    der_encode_asn1_identifier.o               320
    der_encode_asn1_length.o                   180
    der_encode_bit_string.o                    196
    der_encode_boolean.o                        42
    der_encode_custom_type.o                   800
    der_encode_generalizedtime.o               820       16
    der_encode_ia5_string.o                    138
    der_encode_integer.o                       416
    der_encode_object_identifier.o             350
    der_encode_octet_string.o                  126
    der_encode_printable_string.o              138
    der_encode_raw_bit_string.o                226
    der_encode_sequence_ex.o                   726
    der_encode_sequence_multi.o                290
    der_encode_set.o                           176
    der_encode_setof.o                         452
    der_encode_short_integer.o                 148
    der_encode_utctime.o                       624       16
    der_encode_utf8_string.o                   472
    der_length_asn1_identifier.o                12
    der_length_asn1_length.o                    12
    der_length_bit_string.o                     50
    der_length_boolean.o                         8
    der_length_custom_type.o                   632
    der_length_generalizedtime.o                56
    der_length_ia5_string.o                    146      816
    der_length_integer.o                       160
    der_length_object_identifier.o             192
    der_length_octet_string.o                   34
    der_length_printable_string.o              146      592
    der_length_sequence.o                      574
    der_length_short_integer.o                  76
    der_length_teletex_string.o                146      944
    der_length_utctime.o                        26
    der_length_utf8_string.o                   134
    des.o                                    2 198   35 936
    ecc.o                                             8 348
    ecc_find_curve.o                           332    1 336
    ecc_free.o                                  72
    ecc_get_oid_str.o                           20
    ecc_make_key.o                              80
    ecc_set_curve.o                            252
    ecc_set_curve_internal.o                   444
    ecc_set_key.o                              196
    ecc_sign_hash.o                          1 036       16
    ecc_ssh_ecdsa_encode_name.o                164      128
    fortuna.o                                1 216       48
    hash_memory.o                              176
    idea.o                                   1 196      304
    kasumi.o                                 1 032    2 896
    khazad.o                                 1 716   16 740
    kseed.o                                  2 526    4 496
    ltc_ecc_import_point.o                     428
    ltc_ecc_is_point.o                         280
    ltc_ecc_is_point_at_infinity.o             196
    ltc_ecc_map.o                              264
    ltc_ecc_mul2add.o                          912
    ltc_ecc_mulmod_timing.o                    836
    ltc_ecc_points.o                           220
    ltc_ecc_projective_add_point.o           1 660
    ltc_ecc_projective_dbl_point.o           1 232
    ltc_ecc_verify_key.o                       208
    ltm_desc.o                                 746      248
    mem_neq.o                                   62
    multi.o                                    144
    multi2.o                                 1 184      280
    noekeon.o                                1 284      628
    pk_get_oid.o                                48      116
    pk_oid_cmp.o                               116
    pk_oid_str.o                               336
    pkcs_1_mgf1.o                              284
    pkcs_1_oaep_decode.o                       572
    pkcs_1_v1_5_decode.o                       172
    rand_bn.o                                  236
    rand_prime.o                               240
    rc2.o                                    1 146      660
    rc4.o                                    1 004      144
    rc4_stream.o                               266
    rc5.o                                    1 350      428
    rc6.o                                    1 854      512
    rng_get_bytes.o                             88
    rng_make_prng.o                            232
    rsa_decrypt_key.o                          232
    rsa_exptmod.o                              752
    rsa_free.o                                  52
    rsa_import.o                               532
    rsa_make_key.o                             536
    safer.o                                  2 172    1 176
    saferp.o                                33 596    1 400
    serpent.o                                5 632      756
    sha1.o                                   1 664      232
    sha256.o                                 8 164      256
    skipjack.o                               1 038      520
    sober128.o                                 944      156
    sober128_stream.o                        3 544    2 048
    sprng.o                                    152       52
    ssh_encode_sequence_multi.o                564
    twofish.o                                3 112    4 988
    x509_decode_subject_public_key_info.o      568
    xtea.o                                     968      464
    yarrow.o                                   632       48
    zeromem.o                                   18
    ----------------------------------------------------------------
    Total:                                 137 472  130 852    8 644

libtommath.a: [6]
    bn_fast_mp_invmod.o                        584
    bn_fast_mp_montgomery_reduce.o             398
    bn_fast_s_mp_mul_digs.o                    294
    bn_fast_s_mp_mul_high_digs.o               278
    bn_fast_s_mp_sqr.o                         378
    bn_mp_2expt.o                               78
    bn_mp_abs.o                                 36
    bn_mp_add.o                                 80
    bn_mp_add_d.o                              282
    bn_mp_addmod.o                              82
    bn_mp_clamp.o                               42
    bn_mp_clear.o                               56
    bn_mp_clear_multi.o                         34
    bn_mp_cmp.o                                 56
    bn_mp_cmp_d.o                               54
    bn_mp_cmp_mag.o                             98
    bn_mp_cnt_lsb.o                             80       64
    bn_mp_copy.o                                92
    bn_mp_count_bits.o                          44
    bn_mp_div.o                                956
    bn_mp_div_2.o                              166
    bn_mp_div_2d.o                             202
    bn_mp_div_3.o                              236
    bn_mp_div_d.o                              352
    bn_mp_dr_is_modulus.o                       46
    bn_mp_dr_reduce.o                          210
    bn_mp_dr_setup.o                            12
    bn_mp_exch.o                                42
    bn_mp_exptmod.o                            266
    bn_mp_exptmod_fast.o                     1 044
    bn_mp_gcd.o                                312
    bn_mp_get_bit.o                             80
    bn_mp_get_int.o                             52
    bn_mp_grow.o                                78
    bn_mp_init.o                                58
    bn_mp_init_copy.o                           48
    bn_mp_init_multi.o                          96
    bn_mp_init_set.o                            34
    bn_mp_init_set_int.o                        32
    bn_mp_init_size.o                           72
    bn_mp_invmod.o                              78
    bn_mp_invmod_slow.o                        782
    bn_mp_is_square.o                          356      236
    bn_mp_jacobi.o                              50
    bn_mp_karatsuba_mul.o                      496
    bn_mp_karatsuba_sqr.o                      348
    bn_mp_kronecker.o                          436       32
    bn_mp_lcm.o                                146
    bn_mp_lshd.o                               132
    bn_mp_mod.o                                110
    bn_mp_mod_2d.o                             172
    bn_mp_mod_d.o                               22
    bn_mp_montgomery_calc_normalization.o      142
    bn_mp_montgomery_reduce.o                  306
    bn_mp_montgomery_setup.o                    74
    bn_mp_mul.o                                192
    bn_mp_mul_2.o                              170
    bn_mp_mul_2d.o                             228
    bn_mp_mul_d.o                              182
    bn_mp_mulmod.o                              84
    bn_mp_neg.o                                 58
    bn_mp_prime_is_divisible.o                  68
    bn_mp_prime_is_prime.o                     712       48
    bn_mp_prime_miller_rabin.o                 260
    bn_mp_prime_strong_lucas_selfridge.o     1 364
    bn_mp_radix_smap.o                                  164
    bn_mp_rand.o                               222                 8
    bn_mp_read_radix.o                         224
    bn_mp_read_unsigned_bin.o                   98
    bn_mp_reduce.o                             244
    bn_mp_reduce_2k.o                          134
    bn_mp_reduce_2k_l.o                        130
    bn_mp_reduce_2k_setup.o                    102
    bn_mp_reduce_2k_setup_l.o                   70
    bn_mp_reduce_is_2k.o                        98
    bn_mp_reduce_is_2k_l.o                      86
    bn_mp_reduce_setup.o                        42
    bn_mp_rshd.o                                78
    bn_mp_set.o                                 38
    bn_mp_set_int.o                             72
    bn_mp_set_long.o                            72
    bn_mp_sqr.o                                 96
    bn_mp_sqrmod.o                              76
    bn_mp_sqrt.o                               214
    bn_mp_sqrtmod_prime.o                      780
    bn_mp_sub.o                                 88
    bn_mp_sub_d.o                              286
    bn_mp_submod.o                              82
    bn_mp_to_unsigned_bin.o                     90
    bn_mp_toom_mul.o                         1 204
    bn_mp_toom_sqr.o                           896
    bn_mp_toradix.o                            172
    bn_mp_unsigned_bin_size.o                   36
    bn_mp_zero.o                                30
    bn_prime_tab.o                                    1 024
    bn_reverse.o                                30
    bn_s_mp_add.o                              246
    bn_s_mp_exptmod.o                          932
    bn_s_mp_mul_digs.o                         266
    bn_s_mp_mul_high_digs.o                    282
    bn_s_mp_sqr.o                              306
    bn_s_mp_sub.o                              178
    bncore.o                                             14       16
    ----------------------------------------------------------------
    Total:                                  22 408    1 582       24

m7M_tls.a: [7]
    DblToFlt.o                                 104
    fpinit_M.o                                  34
    ----------------------------------------------------------------
    Total:                                     138

rt7M_tl.a: [8]
    ABImemclr.o                                  6
    ABImemclr4.o                                 6
    ABImemcpy_unaligned.o                      118
    ABImemmove_unaligned.o                     120
    ABImemset.o                                102
    ABImemset48.o                               50
    I64DivMod.o                                560
    I64DivZer.o                                  2
    U64Shr.o                                    30
    cexit.o                                     10
    cmain.o                                     30
    cstartup_M.o                                12
    data_init.o                                 40
    memchr.o                                    88
    memcmp_unaligned.o                          98
    packbits_init_single.o                      56
    strchr.o                                    22
    strcmp.o                                    18
    strlen.o                                    54
    strncpy_unaligned.o                        108
    zero_init3.o                                58
    ----------------------------------------------------------------
    Total:                                   1 588

shb_l.a: [9]
    clock.o                                     10
    exit.o                                      20
    ----------------------------------------------------------------
    Total:                                      30

    Gaps                                        75       14        4
    Linker created                                       32
--------------------------------------------------------------------
    Grand Total:                           181 589  137 178  144 273


*******************************************************************************
*** ENTRY LIST
***

Entry                       Address     Size  Type      Object
-----                       -------     ----  ----      ------
.iar.init_table$$Base      0x5'859c            --   Gb  - Linker created -
.iar.init_table$$Limit     0x5'85bc            --   Gb  - Linker created -
?main                      0x5'87c9           Code  Gb  cmain.o [8]
BYTE2WORD                  0x2'7769     0x12  Code  Lc  sober128_stream.o [5]
F                          0x1'c519     0x82  Code  Lc  camellia.o [5]
FI                         0x2'7303     0x50  Code  Lc  cast5.o [5]
FI                         0x4'1501     0x44  Code  Lc  kasumi.o [5]
FI::S7                     0x5'2848    0x200  Data  Lc  kasumi.o [5]
FI::S9                     0x2'c950    0x800  Data  Lc  kasumi.o [5]
FII                        0x2'7353     0x50  Code  Lc  cast5.o [5]
FIII                       0x2'73a3     0x48  Code  Lc  cast5.o [5]
FL                         0x4'15a5     0x36  Code  Lc  kasumi.o [5]
FLASHBASE$$Base              0xc000            --   Gb  - Linker created -
FLASHBASE$$Limit             0xc100            --   Gb  - Linker created -
FO                         0x4'1545     0x60  Code  Lc  kasumi.o [5]
HEAP$$Base              0x1002'3398            --   Gb  - Linker created -
HEAP$$Limit             0x1002'3398            --   Gb  - Linker created -
HardFault_Handler          0x5'4275     0x1c  Code  Gb  am_util_faultisr.o [1]
KARATSUBA_MUL_CUTOFF    0x1000'46fc      0x4  Data  Gb  bncore.o [6]
KARATSUBA_SQR_CUTOFF    0x1000'4700      0x4  Data  Gb  bncore.o [6]
KCi                        0x5'75ec     0x40  Data  Lc  kseed.o [5]
Multab                     0x4'b508    0x400  Data  Lc  sober128_stream.o [5]
ORIG_P                     0x5'6c0c     0x48  Data  Lc  blowfish.o [5]
ORIG_S                     0x2'47b0   0x1000  Data  Lc  blowfish.o [5]
RC                         0x5'7124     0x44  Data  Lc  noekeon.o [5]
RS                         0x5'86fc     0x20  Data  Lc  twofish.o [5]
Region$$Table$$Base        0x5'859c            --   Gb  - Linker created -
Region$$Table$$Limit       0x5'85bc            --   Gb  - Linker created -
Reset_Handler              0x5'87b1      0x6  Code  Gb  startup_iar.o [1]
S1                         0x4'8508    0x400  Data  Lc  cast5.o [5]
S2                         0x4'8908    0x400  Data  Lc  cast5.o [5]
S3                         0x4'8d08    0x400  Data  Lc  cast5.o [5]
S4                         0x4'9108    0x400  Data  Lc  cast5.o [5]
S5                         0x4'9508    0x400  Data  Lc  cast5.o [5]
S6                         0x4'9908    0x400  Data  Lc  cast5.o [5]
S7                         0x4'9d08    0x400  Data  Lc  cast5.o [5]
S8                         0x4'a108    0x400  Data  Lc  cast5.o [5]
SBOX                       0x5'2a48    0x200  Data  Lc  twofish.o [5]
SP0222                     0x4'7908    0x400  Data  Lc  camellia.o [5]
SP1                        0x5'3380    0x100  Data  Lc  des.o [5]
SP1110                     0x4'7508    0x400  Data  Lc  camellia.o [5]
SP2                        0x5'3480    0x100  Data  Lc  des.o [5]
SP3                        0x5'3580    0x100  Data  Lc  des.o [5]
SP3033                     0x4'7d08    0x400  Data  Lc  camellia.o [5]
SP4                        0x5'3680    0x100  Data  Lc  des.o [5]
SP4404                     0x4'8108    0x400  Data  Lc  camellia.o [5]
SP5                        0x5'3780    0x100  Data  Lc  des.o [5]
SP6                        0x5'3880    0x100  Data  Lc  des.o [5]
SP7                        0x5'3980    0x100  Data  Lc  des.o [5]
SP8                        0x5'3a80    0x100  Data  Lc  des.o [5]
SS0                        0x4'a508    0x400  Data  Lc  kseed.o [5]
SS1                        0x4'a908    0x400  Data  Lc  kseed.o [5]
SS2                        0x4'ad08    0x400  Data  Lc  kseed.o [5]
SS3                        0x4'b108    0x400  Data  Lc  kseed.o [5]
Safer_Expand_Userkey       0x2'b879    0x1c0  Code  Lc  safer.o [5]
Sbox                       0x4'b908    0x400  Data  Lc  sober128_stream.o [5]
T0                         0x4'5d08    0x400  Data  Lc  anubis.o [5]
T0                         0x2'd150    0x800  Data  Lc  khazad.o [5]
T1                         0x4'6108    0x400  Data  Lc  anubis.o [5]
T1                         0x2'd950    0x800  Data  Lc  khazad.o [5]
T2                         0x4'6508    0x400  Data  Lc  anubis.o [5]
T2                         0x2'e150    0x800  Data  Lc  khazad.o [5]
T3                         0x4'6908    0x400  Data  Lc  anubis.o [5]
T3                         0x2'e950    0x800  Data  Lc  khazad.o [5]
T4                         0x4'6d08    0x400  Data  Lc  anubis.o [5]
T4                         0x2'f150    0x800  Data  Lc  khazad.o [5]
T5                         0x4'7108    0x400  Data  Lc  anubis.o [5]
T5                         0x2'f950    0x800  Data  Lc  khazad.o [5]
T6                         0x3'0150    0x800  Data  Lc  khazad.o [5]
T7                         0x3'0950    0x800  Data  Lc  khazad.o [5]
TD0                        0x4'1d08    0x400  Data  Lc  aes.o [5]
TD1                        0x4'4108    0x400  Data  Lc  aes.o [5]
TD2                        0x4'4508    0x400  Data  Lc  aes.o [5]
TD3                        0x4'4908    0x400  Data  Lc  aes.o [5]
TE0                        0x4'1908    0x400  Data  Lc  aes.o [5]
TE1                        0x4'2508    0x400  Data  Lc  aes.o [5]
TE2                        0x4'2908    0x400  Data  Lc  aes.o [5]
TE3                        0x4'2d08    0x400  Data  Lc  aes.o [5]
TOOM_MUL_CUTOFF         0x1000'4704      0x4  Data  Gb  bncore.o [6]
TOOM_SQR_CUTOFF         0x1000'4708      0x4  Data  Gb  bncore.o [6]
Td4                        0x4'2108    0x400  Data  Lc  aes.o [5]
Te4_0                      0x4'3108    0x400  Data  Lc  aes.o [5]
Te4_1                      0x4'3508    0x400  Data  Lc  aes.o [5]
Te4_2                      0x4'3908    0x400  Data  Lc  aes.o [5]
Te4_3                      0x4'3d08    0x400  Data  Lc  aes.o [5]
Tks0                       0x4'4d08    0x400  Data  Lc  aes.o [5]
Tks1                       0x4'5108    0x400  Data  Lc  aes.o [5]
Tks2                       0x4'5508    0x400  Data  Lc  aes.o [5]
Tks3                       0x4'5908    0x400  Data  Lc  aes.o [5]
XORWORD                    0x2'777b     0x26  Code  Lc  sober128_stream.o [5]
_GetN                      0x3'616d     0x22  Code  Lc  xscanfsmall_nomb.o [2]
_GetintSmallNoMb           0x3'64b9    0x1f0  Code  Lc  xscanfsmall_nomb.o [2]
_GetstrSmallNoMb           0x3'63b9     0xfc  Code  Lc  xscanfsmall_nomb.o [2]
_PrintfTiny                0x3'e949    0x126  Code  Gb  xprintftiny.o [2]
_Rand_idx               0x1002'32a4      0x4  Data  Lc  rand.o [2]
_Rand_rv                0x1002'3224     0x80  Data  Lc  rand.o [2]
_Randinit               0x1000'470c      0x1  Data  Gb  rand.o [2]
_Randseed               0x1000'4710      0x4  Data  Gb  rand.o [2]
_SNProut                   0x1'f2af     0x1a  Code  Gb  xsnprout.o [2]
_SScin                     0x1'44fb     0x1e  Code  Gb  xsscin.o [2]
_ScanfSmallNoMb            0x3'61a9    0x20a  Code  Gb  xscanfsmall_nomb.o [2]
_UngetN                    0x3'618f     0x1a  Code  Lc  xscanfsmall_nomb.o [2]
__Patchable                  0xc0c0     0x40  Data  Gb  startup_iar.o [1]
__aeabi_d2f                0x2'af79           Code  Gb  DblToFlt.o [7]
__aeabi_ldiv0              0x3'98f9           Code  Gb  I64DivZer.o [8]
__aeabi_llsr               0x3'39b9           Code  Gb  U64Shr.o [8]
__aeabi_memclr             0x2'30f1           Code  Gb  ABImemclr.o [8]
__aeabi_memclr4            0x2'4775           Code  Gb  ABImemclr4.o [8]
__aeabi_memset             0x2'310d           Code  Gb  ABImemset.o [8]
__aeabi_uldivmod           0x3'96c9           Code  Gb  I64DivMod.o [8]
__cmain                    0x5'87c9           Code  Gb  cmain.o [8]
__data_GetMemChunk         0x2'30c5     0x2c  Code  Gb  xgetmemchunk.o [2]
__data_GetMemChunk::start
                        0x1002'3388      0x4  Data  Lc  xgetmemchunk.o [2]
__exit                     0x2'30f9     0x14  Code  Gb  exit.o [9]
__iar_Fail_s               0x3'6719     0x1c  Code  Gb  xfail_s.o [2]
__iar_Memchr               0x3'6929           Code  Gb  memchr.o [8]
__iar_Memset               0x2'310d           Code  Gb  ABImemset.o [8]
__iar_Memset4_word         0x2'477d           Code  Gb  ABImemset48.o [8]
__iar_Memset8_word         0x2'477d           Code  Gb  ABImemset48.o [8]
__iar_Memset_word          0x2'3115           Code  Gb  ABImemset.o [8]
__iar_Stolx                0x3'6759     0x7e  Code  Gb  iar_Stolx.o [2]
__iar_Stoulx               0x3'67dd    0x13e  Code  Gb  iar_Stoulx.o [2]
__iar_Strchr               0x3'6701           Code  Gb  strchr.o [8]
__iar_data_init3           0x5'8431     0x28  Code  Gb  data_init.o [8]
__iar_dlcalloc             0x2'2cd7     0x3e  Code  Gb  dlmalloc.o [2]
__iar_dlfree               0x2'27e1    0x4f6  Code  Gb  dlmalloc.o [2]
__iar_dlmalloc             0x2'252b    0x2b6  Code  Gb  dlmalloc.o [2]
__iar_dlrealloc            0x2'3031     0x7c  Code  Gb  dlmalloc.o [2]
__iar_init_vfp             0x5'8579           Code  Gb  fpinit_M.o [7]
__iar_packbits_init_single3
                           0x5'7975     0x38  Code  Gb  packbits_init_single.o [8]
__iar_program_start        0x5'87bb           Code  Gb  cstartup_M.o [8]
__iar_unaligned_memcmp     0x1'4499           Code  Gb  memcmp_unaligned.o [8]
__iar_unaligned_memcpy     0x2'12ad           Code  Gb  ABImemcpy_unaligned.o [8]
__iar_unaligned_memcpy4
                           0x2'12cd           Code  Gb  ABImemcpy_unaligned.o [8]
__iar_unaligned_memcpy8
                           0x2'12cd           Code  Gb  ABImemcpy_unaligned.o [8]
__iar_unaligned_memmove
                           0x3'ef3d           Code  Gb  ABImemmove_unaligned.o [8]
__iar_unaligned_memmove4
                           0x3'ef3d           Code  Gb  ABImemmove_unaligned.o [8]
__iar_unaligned_memmove8
                           0x3'ef3d           Code  Gb  ABImemmove_unaligned.o [8]
__iar_unaligned_strncpy
                           0x3'd3b5           Code  Gb  strncpy_unaligned.o [8]
__iar_zero_init3           0x1'445f     0x3a  Code  Gb  zero_init3.o [8]
__low_level_init           0x5'879d      0xa  Code  Gb  startup_iar.o [1]
__vector_table               0xc000     0xc0  Data  Gb  startup_iar.o [1]
_add_inv                   0x3'f4cb      0x8  Code  Lc  idea.o [5]
_call_main                 0x5'87d5           Code  Gb  cmain.o [8]
_chacha_block              0x3'fdc1    0x394  Code  Lc  chacha_crypt.o [5]
_char_to_int               0x3'2bdf     0x52  Code  Lc  der_decode_generalizedtime.o [5]
_char_to_int               0x3'2943     0x52  Code  Lc  der_decode_utctime.o [5]
_ctr_encrypt               0x5'1a31     0xb6  Code  Lc  ctr_encrypt.o [5]
_curve_names               0x5'20b0    0x24c  Data  Lc  ecc_find_curve.o [5]
_dec_block                 0x2'3df5    0x856  Code  Lc  serpent.o [5]
_der_decode_sequence_va
                           0x3'b9ad     0xf4  Code  Lc  der_decode_sequence_multi.o [5]
_ecc_cmp_hex_bn            0x3'c1d5     0x2e  Code  Lc  ecc_set_curve_internal.o [5]
_ecc_oid_lookup            0x3'c203     0xa4  Code  Lc  ecc_set_curve_internal.o [5]
_enc_block                 0x2'34ed    0x908  Code  Lc  serpent.o [5]
_exit                      0x5'87ed           Code  Gb  cexit.o [8]
_fortuna_add               0x3'f235     0x66  Code  Lc  fortuna.o [5]
_fortuna_reseed            0x3'efd1    0x140  Code  Lc  fortuna.o [5]
_fortuna_update_iv         0x3'efb5     0x1c  Code  Lc  fortuna.o [5]
_gm_                    0x1002'2d78    0x1d8  Data  Lc  dlmalloc.o [2]
_ltc_to_asn1               0x3'e39d      0xa  Code  Lc  der_encode_set.o [5]
_main                      0x5'87e3           Code  Gb  cmain.o [8]
_mul_inv                   0x3'f475     0x56  Code  Lc  idea.o [5]
_name_match                0x3'ae85     0x8c  Code  Lc  ecc_find_curve.o [5]
_process_block             0x3'f66b    0x1c0  Code  Lc  idea.o [5]
_qsort_helper              0x3'e3a7     0x24  Code  Lc  der_encode_set.o [5]
_qsort_helper              0x3'e44d     0x64  Code  Lc  der_encode_setof.o [5]
_rng_ansic                 0x3'b721     0x2c  Code  Lc  rng_get_bytes.o [5]
_rng_nix                   0x3'b71d      0x4  Code  Lc  rng_get_bytes.o [5]
_setup_key                 0x3'f4d3    0x198  Code  Lc  idea.o [5]
_setup_key                 0x2'3175    0x372  Code  Lc  serpent.o [5]
abort                      0x2'30bd      0x6  Code  Gb  abort.o [2]
add                        0x4'f619      0xc  Code  Lc  ltm_desc.o [5]
add_segment                0x2'1725    0x1f2  Code  Lc  dlmalloc.o [2]
addi                       0x4'f625      0xc  Code  Lc  ltm_desc.o [5]
addmod                     0x4'f6c7      0xc  Code  Lc  ltm_desc.o [5]
adjust_heap                0x3'ebcd     0x86  Code  Lc  qsort.o [2]
aes_desc                   0x5'56bc     0x68  Data  Gb  aes.o [5]
am_bsp_itm_printf_disable
                           0x5'0f9f     0x1a  Code  Gb  am_bsp.o [3]
am_bsp_itm_printf_enable
                           0x5'0f6b     0x34  Code  Gb  am_bsp.o [3]
am_bsp_low_power_init      0x5'0f1d     0x4e  Code  Gb  am_bsp.o [3]
am_bsp_psLEDs           0x1000'46a4     0x28  Data  Gb  am_bsp.o [3]
am_default_isr             0x5'87b7      0x2  Code  Lc  startup_iar.o [1]
am_hal_cachectrl_config
                           0x5'0ec1     0x4a  Code  Gb  am_hal_cachectrl.o [4]
am_hal_cachectrl_defaults
                           0x5'969c      0x4  Data  Gb  am_hal_cachectrl.o [4]
am_hal_cachectrl_enable
                           0x5'0f0b      0xe  Code  Gb  am_hal_cachectrl.o [4]
am_hal_clkgen_control      0x5'0d99     0xcc  Code  Gb  am_hal_clkgen.o [4]
am_hal_clkgen_status_get
                           0x5'0e65     0x32  Code  Gb  am_hal_clkgen.o [4]
am_hal_flash_delay         0x5'1615     0x10  Code  Gb  am_hal_flash.o [4]
am_hal_flash_delay_status_check
                           0x5'1625     0x44  Code  Gb  am_hal_flash.o [4]
am_hal_gpio_pinconfig      0x4'd663    0x2a2  Code  Gb  am_hal_gpio.o [4]
am_hal_gpio_state_write
                           0x4'd905     0xa2  Code  Gb  am_hal_gpio.o [4]
am_hal_interrupt_master_disable
                           0x4'd9f9      0xa  Code  Gb  am_hal_interrupt.o [4]
am_hal_interrupt_master_set
                           0x4'da05      0x8  Code  Gb  am_hal_interrupt.o [4]
am_hal_itm_disable         0x5'12d1     0x50  Code  Gb  am_hal_itm.o [4]
am_hal_itm_enable          0x5'12a5     0x2c  Code  Gb  am_hal_itm.o [4]
am_hal_itm_not_busy        0x5'1321     0x14  Code  Gb  am_hal_itm.o [4]
am_hal_itm_print           0x5'1369     0x24  Code  Gb  am_hal_itm.o [4]
am_hal_itm_stimulus_reg_byte_write
                           0x5'1359     0x10  Code  Gb  am_hal_itm.o [4]
am_hal_mcuctrl_info_get
                           0x5'1545     0x76  Code  Gb  am_hal_mcuctrl.o [4]
am_hal_pwrctrl_low_power_init
                           0x5'11c9     0x86  Code  Gb  am_hal_pwrctrl.o [4]
am_hal_rtc_osc_disable     0x5'1291      0xc  Code  Gb  am_hal_rtc.o [4]
am_hal_rtc_osc_select      0x5'1275     0x1c  Code  Gb  am_hal_rtc.o [4]
am_hal_security_get_info
                           0x5'1101     0xb6  Code  Gb  am_hal_security.o [4]
am_hal_tpiu_enable         0x5'138d     0x92  Code  Gb  am_hal_tpiu.o [4]
am_util_faultisr_collect_data
                           0x5'429b     0xa8  Code  Gb  am_util_faultisr.o [1]
am_util_id_device          0x5'0fd5    0x12c  Code  Gb  am_util_id.o [1]
am_util_stdio_printf       0x2'af1b     0x36  Code  Gb  am_util_stdio.o [1]
am_util_stdio_printf_init
                           0x2'a6b9      0x8  Code  Gb  am_util_stdio.o [1]
am_util_stdio_sprintf      0x2'af01     0x1a  Code  Gb  am_util_stdio.o [1]
am_util_stdio_terminal_clear
                           0x2'af51      0xa  Code  Gb  am_util_stdio.o [1]
am_util_stdio_vsprintf     0x2'aadf    0x422  Code  Gb  am_util_stdio.o [1]
anubis_crypt               0x2'c4bf    0x30a  Code  Lc  anubis.o [5]
anubis_desc                0x5'5724     0x68  Data  Gb  anubis.o [5]
anubis_done                0x2'c8f5      0x2  Code  Gb  anubis.o [5]
anubis_ecb_decrypt         0x2'c7d7     0x10  Code  Gb  anubis.o [5]
anubis_ecb_encrypt         0x2'c7c9      0xe  Code  Gb  anubis.o [5]
anubis_keysize             0x2'c8f7     0x5a  Code  Gb  anubis.o [5]
anubis_setup               0x2'c0f5    0x3ca  Code  Gb  anubis.o [5]
anubis_test                0x2'c7e7     0xe2  Code  Gb  anubis.o [5]
anubis_test::tests         0x4'06c8    0x428  Data  Lc  anubis.o [5]
baseten                    0x5'96e8      0x4  Data  Lc  der_encode_generalizedtime.o [5]
baseten                    0x5'96ec      0x4  Data  Lc  der_encode_utctime.o [5]
bigbyte                    0x5'6594     0x60  Data  Lc  des.o [5]
blowfish_desc              0x5'578c     0x68  Data  Gb  blowfish.o [5]
blowfish_done              0x3'6151      0x2  Code  Gb  blowfish.o [5]
blowfish_ecb_decrypt       0x3'5ebf    0x196  Code  Gb  blowfish.o [5]
blowfish_ecb_encrypt       0x3'5d29    0x196  Code  Gb  blowfish.o [5]
blowfish_keysize           0x3'6153     0x18  Code  Gb  blowfish.o [5]
blowfish_setup             0x3'5bc9    0x160  Code  Gb  blowfish.o [5]
blowfish_test              0x3'6055     0xe8  Code  Gb  blowfish.o [5]
blowfish_test::tests       0x5'6c54     0x48  Data  Lc  blowfish.o [5]
bn_reverse                 0x5'008b     0x1e  Code  Gb  bn_reverse.o [6]
bytebit                    0x5'86bc     0x20  Data  Lc  des.o [5]
c                          0x5'6ce0     0x48  Data  Lc  khazad.o [5]
camellia_desc              0x5'57f4     0x68  Data  Gb  camellia.o [5]
camellia_done              0x1'f271      0x2  Code  Gb  camellia.o [5]
camellia_ecb_decrypt       0x1'ed33    0x464  Code  Gb  camellia.o [5]
camellia_ecb_encrypt       0x1'e901    0x432  Code  Gb  camellia.o [5]
camellia_keysize           0x1'f273     0x2a  Code  Gb  camellia.o [5]
camellia_setup             0x1'c5e5   0x231c  Code  Gb  camellia.o [5]
camellia_test              0x1'f197     0xce  Code  Gb  camellia.o [5]
camellia_test::tests       0x5'3270    0x110  Data  Lc  camellia.o [5]
cast5_desc                 0x5'585c     0x68  Data  Gb  cast5.o [5]
cast5_done                 0x2'774d      0x2  Code  Gb  cast5.o [5]
cast5_ecb_decrypt          0x2'751b    0x122  Code  Gb  cast5.o [5]
cast5_ecb_encrypt          0x2'73f9    0x122  Code  Gb  cast5.o [5]
cast5_keysize              0x2'774f     0x18  Code  Gb  cast5.o [5]
cast5_setup                0x2'67b1    0xb52  Code  Gb  cast5.o [5]
cast5_test                 0x2'763d     0xee  Code  Gb  cast5.o [5]
cast5_test::tests          0x5'5514     0x6c  Data  Lc  cast5.o [5]
chacha20_prng_add_entropy
                           0x4'c9ed     0xbc  Code  Gb  chacha20.o [5]
chacha20_prng_desc         0x5'8340     0x28  Data  Gb  chacha20.o [5]
chacha20_prng_done         0x4'cb3d     0x10  Code  Gb  chacha20.o [5]
chacha20_prng_export       0x4'cb4d     0x28  Code  Gb  chacha20.o [5]
chacha20_prng_import       0x4'cb75     0x3c  Code  Gb  chacha20.o [5]
chacha20_prng_read         0x4'cb05     0x38  Code  Gb  chacha20.o [5]
chacha20_prng_ready        0x4'caa9     0x5c  Code  Gb  chacha20.o [5]
chacha20_prng_start        0x4'c9c9     0x24  Code  Gb  chacha20.o [5]
chacha20_prng_test         0x4'cbb1    0x1c4  Code  Gb  chacha20.o [5]
chacha_crypt               0x4'0155     0xf6  Code  Gb  chacha_crypt.o [5]
chacha_done                0x4'cedf     0x12  Code  Gb  chacha_done.o [5]
chacha_ivctr64             0x4'cea5     0x3a  Code  Gb  chacha_ivctr64.o [5]
chacha_keystream           0x4'cd8d     0x2a  Code  Gb  chacha_keystream.o [5]
chacha_setup               0x4'cdb9     0xec  Code  Gb  chacha_setup.o [5]
cipher_descriptor       0x1002'1a58    0xdd0  Data  Gb  crypt_cipher_descriptor.o [5]
cipher_is_valid            0x5'18e5     0x20  Code  Gb  crypt_cipher_is_valid.o [5]
clock                      0x3'c9e1      0xa  Code  Gb  clock.o [9]
compare                    0x4'f579     0x26  Code  Lc  ltm_desc.o [5]
compare_d                  0x4'f59f     0x26  Code  Lc  ltm_desc.o [5]
compare_testvector         0x1'443d     0x22  Code  Gb  compare_testvector.o [5]
cookey                     0x2'b111     0x8e  Code  Lc  des.o [5]
copy                       0x4'f521      0xc  Code  Lc  ltm_desc.o [5]
count_bits                 0x4'f5c5      0x8  Code  Lc  ltm_desc.o [5]
count_lsb_bits             0x4'f5cd      0x8  Code  Lc  ltm_desc.o [5]
crypt_mp_init              0x3'ab1d     0x26  Code  Gb  crypt_inits.o [5]
ctr_done                   0x5'1bcd     0x30  Code  Gb  ctr_done.o [5]
ctr_encrypt                0x5'1ae7     0xe0  Code  Gb  ctr_encrypt.o [5]
ctr_start                  0x5'1905    0x12c  Code  Gb  ctr_start.o [5]
cycle                      0x2'77a1     0x3c  Code  Lc  sober128_stream.o [5]
dbg_calloc_counter      0x1002'336c      0x4  Data  Gb  hxsc_memmgr.o [1]
dbg_free_counter        0x1002'3374      0x4  Data  Gb  hxsc_memmgr.o [1]
dbg_malloc_counter      0x1002'3370      0x4  Data  Gb  hxsc_memmgr.o [1]
dbg_realloc_counter     0x1002'3368      0x4  Data  Gb  hxsc_memmgr.o [1]
decrypt                    0x3'fa93     0x6e  Code  Lc  multi2.o [5]
decstr_to_int              0x2'a7f1     0x48  Code  Lc  am_util_stdio.o [1]
deinit                     0x4'f503     0x12  Code  Lc  ltm_desc.o [5]
der_asn1_tag_to_type_map
                           0x5'875c     0x20  Data  Gb  der_asn1_maps.o [5]
der_asn1_tag_to_type_map_sz
                           0x5'96f4      0x4  Data  Gb  der_asn1_maps.o [5]
der_asn1_type_to_identifier_map
                           0x5'6a44     0x50  Data  Gb  der_asn1_maps.o [5]
der_asn1_type_to_identifier_map_sz
                           0x5'96f0      0x4  Data  Gb  der_asn1_maps.o [5]
der_decode_asn1_identifier
                           0x3'1c49    0x144  Code  Gb  der_decode_asn1_identifier.o [5]
der_decode_asn1_length     0x3'1d8d     0x6a  Code  Gb  der_decode_asn1_length.o [5]
der_decode_bit_string      0x3'200b     0xc2  Code  Gb  der_decode_bit_string.o [5]
der_decode_boolean         0x3'1df7     0x32  Code  Gb  der_decode_boolean.o [5]
der_decode_choice          0x3'334f    0x40a  Code  Gb  der_decode_choice.o [5]
der_decode_custom_type     0x3'1151     0x12  Code  Gb  der_decode_custom_type.o [5]
der_decode_custom_type_ex
                           0x3'1163    0x7e2  Code  Gb  der_decode_custom_type.o [5]
der_decode_generalizedtime
                           0x3'2c31    0x256  Code  Gb  der_decode_generalizedtime.o [5]
der_decode_ia5_string      0x3'257b     0x98  Code  Gb  der_decode_ia5_string.o [5]
der_decode_integer         0x3'1e31     0xa8  Code  Gb  der_decode_integer.o [5]
der_decode_object_identifier
                           0x3'229d     0xf2  Code  Gb  der_decode_object_identifier.o [5]
der_decode_octet_string
                           0x3'21f1     0x8a  Code  Gb  der_decode_octet_string.o [5]
der_decode_printable_string
                           0x3'26a7     0x98  Code  Gb  der_decode_printable_string.o [5]
der_decode_raw_bit_string
                           0x3'20ff     0xf2  Code  Gb  der_decode_raw_bit_string.o [5]
der_decode_sequence_ex     0x3'2e87     0x12  Code  Gb  der_decode_sequence_ex.o [5]
der_decode_sequence_multi
                           0x3'baa1     0x16  Code  Gb  der_decode_sequence_multi.o [5]
der_decode_short_integer
                           0x3'1f79     0x46  Code  Gb  der_decode_short_integer.o [5]
der_decode_teletex_string
                           0x3'244f     0x98  Code  Gb  der_decode_teletex_string.o [5]
der_decode_utctime         0x3'2995    0x24a  Code  Gb  der_decode_utctime.o [5]
der_decode_utf8_string     0x3'27d3     0xea  Code  Gb  der_decode_utf8_string.o [5]
der_encode_asn1_identifier
                           0x3'3879    0x140  Code  Gb  der_encode_asn1_identifier.o [5]
der_encode_asn1_length     0x3'37c3     0xb4  Code  Gb  der_encode_asn1_length.o [5]
der_encode_bit_string      0x3'd789     0xc4  Code  Gb  der_encode_bit_string.o [5]
der_encode_boolean         0x3'd529     0x2a  Code  Gb  der_encode_boolean.o [5]
der_encode_custom_type     0x3'e611    0x320  Code  Gb  der_encode_custom_type.o [5]
der_encode_generalizedtime
                           0x3'e069    0x334  Code  Gb  der_encode_generalizedtime.o [5]
der_encode_ia5_string      0x3'db0b     0x8a  Code  Gb  der_encode_ia5_string.o [5]
der_encode_integer         0x3'd555    0x1a0  Code  Gb  der_encode_integer.o [5]
der_encode_object_identifier
                           0x3'd9ad    0x15e  Code  Gb  der_encode_object_identifier.o [5]
der_encode_octet_string
                           0x3'd92f     0x7e  Code  Gb  der_encode_octet_string.o [5]
der_encode_printable_string
                           0x3'db95     0x8a  Code  Gb  der_encode_printable_string.o [5]
der_encode_raw_bit_string
                           0x3'd84d     0xe2  Code  Gb  der_encode_raw_bit_string.o [5]
der_encode_sequence_ex     0x3'd085    0x2d6  Code  Gb  der_encode_sequence_ex.o [5]
der_encode_sequence_multi
                           0x3'c4cd    0x122  Code  Gb  der_encode_sequence_multi.o [5]
der_encode_set             0x3'e3cb     0x78  Code  Gb  der_encode_set.o [5]
der_encode_setof           0x3'e4b1    0x15a  Code  Gb  der_encode_setof.o [5]
der_encode_short_integer
                           0x3'd6f5     0x94  Code  Gb  der_encode_short_integer.o [5]
der_encode_utctime         0x3'ddf9    0x270  Code  Gb  der_encode_utctime.o [5]
der_encode_utf8_string     0x3'dc1f    0x1d8  Code  Gb  der_encode_utf8_string.o [5]
der_ia5_char_encode        0x3'2615     0x22  Code  Gb  der_length_ia5_string.o [5]
der_ia5_value_decode       0x3'2637     0x22  Code  Gb  der_length_ia5_string.o [5]
der_length_asn1_identifier
                           0x3'37b7      0xc  Code  Gb  der_length_asn1_identifier.o [5]
der_length_asn1_length     0x3'3759      0xc  Code  Gb  der_length_asn1_length.o [5]
der_length_bit_string      0x3'20cd     0x32  Code  Gb  der_length_bit_string.o [5]
der_length_boolean         0x3'1e29      0x8  Code  Gb  der_length_boolean.o [5]
der_length_custom_type     0x3'30d7    0x278  Code  Gb  der_length_custom_type.o [5]
der_length_generalizedtime
                           0x3'377f     0x38  Code  Gb  der_length_generalizedtime.o [5]
der_length_ia5_string      0x3'265d     0x4a  Code  Gb  der_length_ia5_string.o [5]
der_length_integer         0x3'1ed9     0xa0  Code  Gb  der_length_integer.o [5]
der_length_object_identifier
                           0x3'239f     0xb0  Code  Gb  der_length_object_identifier.o [5]
der_length_octet_string
                           0x3'227b     0x22  Code  Gb  der_length_octet_string.o [5]
der_length_printable_string
                           0x3'2789     0x4a  Code  Gb  der_length_printable_string.o [5]
der_length_sequence        0x3'2e99      0xa  Code  Gb  der_length_sequence.o [5]
der_length_sequence_ex     0x3'2ea3    0x234  Code  Gb  der_length_sequence.o [5]
der_length_short_integer
                           0x3'1fbf     0x4c  Code  Gb  der_length_short_integer.o [5]
der_length_teletex_string
                           0x3'2531     0x4a  Code  Gb  der_length_teletex_string.o [5]
der_length_utctime         0x3'3765     0x1a  Code  Gb  der_length_utctime.o [5]
der_length_utf8_string     0x3'28eb     0x58  Code  Gb  der_length_utf8_string.o [5]
der_object_identifier_bits
                           0x3'238f     0x10  Code  Gb  der_length_object_identifier.o [5]
der_printable_char_encode
                           0x3'2741     0x22  Code  Gb  der_length_printable_string.o [5]
der_printable_value_decode
                           0x3'2763     0x22  Code  Gb  der_length_printable_string.o [5]
der_teletex_char_encode
                           0x3'24e9     0x22  Code  Gb  der_length_teletex_string.o [5]
der_teletex_value_decode
                           0x3'250b     0x22  Code  Gb  der_length_teletex_string.o [5]
der_utf8_charsize          0x3'28bd     0x20  Code  Gb  der_length_utf8_string.o [5]
der_utf8_valid_char        0x3'28dd      0xe  Code  Gb  der_length_utf8_string.o [5]
des3_desc                  0x5'592c     0x68  Data  Gb  des.o [5]
des3_done                  0x2'b843      0x2  Code  Gb  des.o [5]
des3_ecb_decrypt           0x2'b627     0x82  Code  Gb  des.o [5]
des3_ecb_encrypt           0x2'b5a7     0x80  Code  Gb  des.o [5]
des3_keysize               0x2'b857     0x20  Code  Gb  des.o [5]
des3_setup                 0x2'b43b     0x96  Code  Gb  des.o [5]
des3_test                  0x2'b779     0x7e  Code  Gb  des.o [5]
des_desc                   0x5'58c4     0x68  Data  Gb  des.o [5]
des_done                   0x2'b841      0x2  Code  Gb  des.o [5]
des_ecb_decrypt            0x2'b53b     0x6c  Code  Gb  des.o [5]
des_ecb_encrypt            0x2'b4d1     0x6a  Code  Gb  des.o [5]
des_fp                     0x1'8518   0x4000  Data  Lc  des.o [5]
des_ip                     0x1'4518   0x4000  Data  Lc  des.o [5]
des_keysize                0x2'b845     0x12  Code  Gb  des.o [5]
des_setup                  0x2'b407     0x34  Code  Gb  des.o [5]
des_test                   0x2'b6a9     0xd0  Code  Gb  des.o [5]
des_test::cases            0x5'089c    0x280  Data  Lc  des.o [5]
desfunc                    0x2'b19f    0x268  Code  Lc  des.o [5]
deskey                     0x2'afe1    0x130  Code  Lc  des.o [5]
device_info_get            0x5'1441     0xca  Code  Lc  am_hal_mcuctrl.o [4]
digits                     0x5'6abc     0x28  Data  Lc  iar_Stoulx.o [2]
dispose_chunk              0x2'1af1    0x4a6  Code  Lc  dlmalloc.o [2]
div_2                      0x4'f685      0xc  Code  Lc  ltm_desc.o [5]
divide                     0x4'f679      0xc  Code  Lc  ltm_desc.o [5]
divu64_10                  0x2'a6c1     0xbe  Code  Lc  am_util_stdio.o [1]
ecc_copy_curve             0x3'c2a7     0xe0  Code  Gb  ecc_set_curve_internal.o [5]
ecc_find_curve             0x3'af11     0xb6  Code  Gb  ecc_find_curve.o [5]
ecc_free                   0x3'bdc1     0x48  Code  Gb  ecc_free.o [5]
ecc_generate_key           0x3'c391     0x4a  Code  Gb  ecc_make_key.o [5]
ecc_get_oid_str            0x3'd35b     0x14  Code  Gb  ecc_get_oid_str.o [5]
ecc_set_curve              0x3'afd1     0xf8  Code  Gb  ecc_set_curve.o [5]
ecc_set_key                0x3'b0cd     0xc4  Code  Gb  ecc_set_key.o [5]
ecc_sign_hash_ex           0x3'b191    0x40c  Code  Gb  ecc_sign_hash.o [5]
ecc_ssh_ecdsa_encode_name
                           0x3'c665     0xa4  Code  Gb  ecc_ssh_ecdsa_encode_name.o [5]
encrypt                    0x3'fa39     0x5a  Code  Lc  multi2.o [5]
exit                       0x5'87e7      0x4  Code  Gb  exit.o [2]
exptmod                    0x4'f75b      0xc  Code  Lc  ltm_desc.o [5]
fast_mp_invmod             0x4'ef75    0x248  Code  Gb  bn_fast_mp_invmod.o [6]
fast_mp_montgomery_reduce
                           0x5'00a9    0x18e  Code  Gb  bn_fast_mp_montgomery_reduce.o [6]
fast_s_mp_mul_digs         0x3'82bb    0x126  Code  Gb  bn_fast_s_mp_mul_digs.o [6]
fast_s_mp_mul_high_digs
                           0x5'3043    0x116  Code  Gb  bn_fast_s_mp_mul_high_digs.o [6]
fast_s_mp_sqr              0x3'9101    0x17a  Code  Gb  bn_fast_s_mp_sqr.o [6]
find_hash                  0x3'ab4d     0x3c  Code  Gb  crypt_find_hash.o [5]
find_prng                  0x3'a9a9     0x3c  Code  Gb  crypt_find_prng.o [5]
fortuna_add_entropy        0x3'f29b     0x2a  Code  Gb  fortuna.o [5]
fortuna_desc               0x5'8368     0x28  Data  Gb  fortuna.o [5]
fortuna_done               0x3'f3c7     0x36  Code  Gb  fortuna.o [5]
fortuna_export             0x3'f3fd     0x28  Code  Gb  fortuna.o [5]
fortuna_import             0x3'f425     0x38  Code  Gb  fortuna.o [5]
fortuna_read               0x3'f2ef     0xd8  Code  Gb  fortuna.o [5]
fortuna_ready              0x3'f2c5     0x2a  Code  Gb  fortuna.o [5]
fortuna_start              0x3'f173     0xc2  Code  Gb  fortuna.o [5]
fortuna_test               0x3'f461     0x14  Code  Gb  fortuna.o [5]
fortuna_update_seed        0x3'f111     0x62  Code  Gb  fortuna.o [5]
ftoa                       0x2'a969    0x176  Code  Lc  am_util_stdio.o [1]
gAmHalResetStatus       0x1002'3384      0x4  Data  Gb  am_hal_reset.o [4]
gEncryptedBtcKey        0x1000'4000    0x100  Data  Lc  hxsc_crypto.o [1]
gEncryptedBtcKeySize    0x1000'4100      0x4  Data  Lc  hxsc_crypto.o [1]
gSecretKey              0x1000'4104    0x588  Data  Lc  hxsc_crypto.o [1]
gSecretKeySize          0x1000'468c      0x4  Data  Lc  hxsc_crypto.o [1]
g_AM_BSP_GPIO_ITM_SWO      0x5'96b0      0x4  Data  Gb  am_bsp_pins.o [3]
g_AM_HAL_GPIO_DISABLE      0x5'96a8      0x4  Data  Gb  am_hal_gpio.o [4]
g_AM_HAL_GPIO_OUTPUT       0x5'96ac      0x4  Data  Gb  am_hal_gpio.o [4]
g_DeviceNameApollo         0x5'9558      0x8  Data  Lc  am_util_id.o [1]
g_DeviceNameApollo2        0x5'9560      0x8  Data  Lc  am_util_id.o [1]
g_DeviceNameApollo3        0x5'9568      0x8  Data  Lc  am_util_id.o [1]
g_am_hal_flash             0x5'6534     0x60  Data  Gb  am_hal_flash.o [4]
g_am_hal_mcuctrl_flash_size
                           0x5'71ec     0x40  Data  Gb  am_hal_mcuctrl.o [4]
g_am_hal_mcuctrl_sram_size
                           0x5'722c     0x40  Data  Gb  am_hal_mcuctrl.o [4]
g_bTxtXlate             0x1002'3390      0x1  Data  Lc  am_util_stdio.o [1]
g_counter_calloc        0x1002'335c      0x4  Data  Gb  hxsc_debug.o [1]
g_counter_free          0x1002'3364      0x4  Data  Gb  hxsc_debug.o [1]
g_counter_malloc        0x1002'3358      0x4  Data  Gb  hxsc_debug.o [1]
g_counter_realloc       0x1002'3360      0x4  Data  Gb  hxsc_debug.o [1]
g_func                     0x4'1117     0x72  Code  Lc  skipjack.o [5]
g_pfnCharPrint          0x1002'3350      0x4  Data  Gb  am_util_stdio.o [1]
g_prfbuf                0x1002'2f50    0x100  Data  Lc  am_util_stdio.o [1]
g_ui32HALversion           0x5'96a0      0x4  Data  Gb  am_hal_global.o [4]
g_ui32PrintInterface    0x1002'3378      0x4  Data  Lc  am_bsp.o [3]
g_ui8Bit76Capabilities     0x5'79e0     0x34  Data  Lc  am_hal_gpio.o [4]
g_ui8DeviceNameUnknown     0x5'8fc0     0x10  Data  Lc  am_util_id.o [1]
g_ui8HALcompiler           0x5'7f54     0x30  Data  Gb  am_hal_global.o [4]
g_ui8Inpen                 0x5'79ac     0x34  Data  Lc  am_hal_gpio.o [4]
g_ui8NCEtable              0x5'4824     0xc8  Data  Lc  am_hal_gpio.o [4]
g_ui8VendorNameAmbq        0x5'9570      0x8  Data  Lc  am_util_id.o [1]
g_ui8VendorNameUnknown     0x5'9578      0x8  Data  Lc  am_util_id.o [1]
g_ui8nCEpins               0x5'7a14     0x34  Data  Lc  am_hal_gpio.o [4]
gcd                        0x4'f6af      0xc  Code  Lc  ltm_desc.o [5]
getStackedReg              0x5'4291      0xa  Code  Gb  am_util_faultisr.o [1]
get_digit                  0x4'f55f     0x16  Code  Lc  ltm_desc.o [5]
get_digit_count            0x4'f575      0x4  Code  Lc  ltm_desc.o [5]
get_int                    0x4'f557      0x8  Code  Lc  ltm_desc.o [5]
gf_mult                    0x2'8541     0xe6  Code  Lc  twofish.o [5]
ghxsc_memmgr_buf_sizes     0x5'9040     0x10  Data  Gb  hxsc_memmgr.o [1]
ghxsc_memmgr_heap       0x1000'4714  0x1a680  Data  Gb  hxsc_memmgr.o [1]
ghxsc_memmgr_pool_pointer
                        0x1002'3340     0x10  Data  Gb  hxsc_memmgr.o [1]
ghxsc_memmgr_pool_sizes
                           0x5'9050     0x10  Data  Gb  hxsc_memmgr.o [1]
h_func                     0x2'8695    0x150  Code  Lc  twofish.o [5]
hash_descriptor         0x1002'0c88    0xdd0  Data  Gb  crypt_hash_descriptor.o [5]
hash_is_valid              0x3'bab9     0x20  Code  Gb  crypt_hash_is_valid.o [5]
hash_memory                0x3'cb39     0xb0  Code  Gb  hash_memory.o [5]
hxsc_authenticate          0x3'a453     0x9c  Code  Gb  hxsc_crypto.o [1]
hxsc_calloc                0x3'1b53     0x38  Code  Gb  hxsc_memmgr.o [1]
hxsc_create_btc_signature
                           0x3'a5e5     0x8a  Code  Lc  hxsc_crypto.o [1]
hxsc_create_ecc_key        0x3'a595     0x50  Code  Lc  hxsc_crypto.o [1]
hxsc_crypto                0x3'a6cb     0xcc  Code  Gb  hxsc_crypto.o [1]
hxsc_crypto::auth_challenge
                        0x1000'4690     0x10  Data  Lc  hxsc_crypto.o [1]
hxsc_crypto::btc_signature
                        0x1002'3050    0x100  Data  Lc  hxsc_crypto.o [1]
hxsc_crypto::decrypted_btc_key
                        0x1002'32a8     0x80  Data  Lc  hxsc_crypto.o [1]
hxsc_debug_clock_start     0x3'aacd      0x2  Code  Gb  hxsc_debug.o [1]
hxsc_debug_passed_time     0x3'aacf      0x2  Code  Gb  hxsc_debug.o [1]
hxsc_debug_print_buf       0x3'a389      0x2  Code  Gb  hxsc_crypto.o [1]
hxsc_dec_btc_key           0x3'a4ef     0xa6  Code  Lc  hxsc_crypto.o [1]
hxsc_free                  0x3'1b3b     0x18  Code  Gb  hxsc_memmgr.o [1]
hxsc_get_btc_encrypted_private_key
                           0x3'a369     0x10  Code  Lc  hxsc_crypto.o [1]
hxsc_get_card_secret_key
                           0x3'a379     0x10  Code  Gb  hxsc_crypto.o [1]
hxsc_get_seed              0x3'a349     0x20  Code  Lc  hxsc_crypto.o [1]
hxsc_get_seed::gSeedList
                           0x5'88bc     0x1c  Data  Lc  hxsc_crypto.o [1]
hxsc_init                  0x3'a40d     0x46  Code  Gb  hxsc_crypto.o [1]
hxsc_malloc                0x3'1b03     0x38  Code  Gb  hxsc_memmgr.o [1]
hxsc_memmgr_allocate_buffer
                           0x3'1a4f     0x20  Code  Lc  hxsc_memmgr.o [1]
hxsc_memmgr_find_available_buffer
                           0x3'1a6f     0x42  Code  Gb  hxsc_memmgr.o [1]
hxsc_memmgr_find_pool      0x3'19e5     0x3a  Code  Lc  hxsc_memmgr.o [1]
hxsc_memmgr_find_pool_and_index
                           0x3'19a5     0x40  Code  Gb  hxsc_memmgr.o [1]
hxsc_memmgr_free_buffer
                           0x3'1a2f     0x20  Code  Lc  hxsc_memmgr.o [1]
hxsc_memmgr_init           0x3'194d     0x58  Code  Gb  hxsc_memmgr.o [1]
hxsc_memmgr_is_buffer_free
                           0x3'1a1f     0x10  Code  Lc  hxsc_memmgr.o [1]
hxsc_memmgr_print_statistics
                           0x3'aad1     0x2c  Code  Gb  hxsc_debug.o [1]
hxsc_memmgr_whats_my_bufsize
                           0x3'1ab1     0x52  Code  Gb  hxsc_memmgr.o [1]
hxsc_realloc               0x3'1b8b     0x86  Code  Gb  hxsc_memmgr.o [1]
hxsc_register_all_alogithms
                           0x3'a38b     0x82  Code  Lc  hxsc_crypto.o [1]
hxsc_string_to_hex         0x3'a675     0x56  Code  Gb  hxsc_crypto.o [1]
ia5_table                  0x4'e1b0    0x330  Data  Lc  der_length_ia5_string.o [5]
idea_desc                  0x5'5994     0x68  Data  Gb  idea.o [5]
idea_done                  0x3'f85b      0x2  Code  Gb  idea.o [5]
idea_ecb_decrypt           0x3'f851      0xa  Code  Gb  idea.o [5]
idea_ecb_encrypt           0x3'f849      0x8  Code  Gb  idea.o [5]
idea_keysize               0x3'f85d     0x12  Code  Gb  idea.o [5]
idea_setup                 0x3'f82b     0x1e  Code  Gb  idea.o [5]
idea_test                  0x3'f86f     0xa6  Code  Gb  idea.o [5]
idea_test::tests           0x5'4b24     0xa0  Data  Lc  idea.o [5]
ig_func                    0x4'1189     0x6e  Code  Lc  skipjack.o [5]
ikeystep                   0x5'8318     0x28  Data  Lc  skipjack.o [5]
inc_er                  0x1002'3354      0x4  Data  Gb  cardApp.o [1]
init                       0x4'f4d1     0x32  Code  Lc  ltm_desc.o [5]
init_copy                  0x4'f52d     0x1e  Code  Lc  ltm_desc.o [5]
init_mparams               0x2'1377     0x32  Code  Lc  dlmalloc.o [2]
init_top                   0x2'13a9     0x36  Code  Lc  dlmalloc.o [2]
intro_sort                 0x3'ec53    0x2d0  Code  Lc  qsort.o [2]
invmod                     0x4'f6f7      0xc  Code  Lc  ltm_desc.o [5]
isprime                    0x4'f767     0x24  Code  Lc  ltm_desc.o [5]
kasumi_desc                0x5'59fc     0x68  Data  Gb  kasumi.o [5]
kasumi_done                0x4'183b      0x2  Code  Gb  kasumi.o [5]
kasumi_ecb_decrypt         0x4'1675     0x9a  Code  Gb  kasumi.o [5]
kasumi_ecb_encrypt         0x4'15db     0x9a  Code  Gb  kasumi.o [5]
kasumi_keysize             0x4'183d     0x12  Code  Gb  kasumi.o [5]
kasumi_setup               0x4'170f    0x12c  Code  Gb  kasumi.o [5]
kasumi_setup::C            0x5'86dc     0x20  Data  Lc  kasumi.o [5]
kasumi_test                0x4'184f     0xa2  Code  Gb  kasumi.o [5]
kasumi_test::tests         0x5'4bc4     0xa0  Data  Lc  kasumi.o [5]
key_sigma                  0x5'7fb0     0x30  Data  Lc  camellia.o [5]
keystep                    0x5'82f0     0x28  Data  Lc  skipjack.o [5]
khazad_crypt               0x3'4433    0x26c  Code  Lc  khazad.o [5]
khazad_desc                0x5'5a64     0x68  Data  Gb  khazad.o [5]
khazad_done                0x3'47b9      0x2  Code  Gb  khazad.o [5]
khazad_ecb_decrypt         0x3'46a9      0xc  Code  Gb  khazad.o [5]
khazad_ecb_encrypt         0x3'469f      0xa  Code  Gb  khazad.o [5]
khazad_keysize             0x3'47bb     0x12  Code  Gb  khazad.o [5]
khazad_setup               0x3'4119    0x31a  Code  Gb  khazad.o [5]
khazad_test                0x3'46b5     0xce  Code  Gb  khazad.o [5]
khazad_test::tests         0x5'5330     0x80  Data  Lc  khazad.o [5]
kseed_desc                 0x5'5acc     0x68  Data  Gb  kseed.o [5]
kseed_done                 0x2'a5f9      0x2  Code  Gb  kseed.o [5]
kseed_ecb_decrypt          0x2'a531     0xc8  Code  Gb  kseed.o [5]
kseed_ecb_encrypt          0x2'a46b     0xc6  Code  Gb  kseed.o [5]
kseed_keysize              0x2'a6a5     0x12  Code  Gb  kseed.o [5]
kseed_setup                0x2'9cd9    0x1aa  Code  Gb  kseed.o [5]
kseed_test                 0x2'a5fb     0x88  Code  Gb  kseed.o [5]
kseed_test::tests          0x5'49b4     0xc0  Data  Lc  kseed.o [5]
lcm                        0x4'f6bb      0xc  Code  Lc  ltm_desc.o [5]
lnz                        0x5'762c     0x40  Data  Lc  bn_mp_cnt_lsb.o [6]
ltc_cleanup_multi          0x3'5529     0x2a  Code  Gb  multi.o [5]
ltc_deinit_multi           0x3'550d     0x1c  Code  Gb  multi.o [5]
ltc_ecc_copy_point         0x3'56b1     0x42  Code  Gb  ltc_ecc_points.o [5]
ltc_ecc_curves             0x5'05fc    0x2a0  Data  Gb  ecc.o [5]
ltc_ecc_del_point          0x3'5651     0x1c  Code  Gb  ltc_ecc_points.o [5]
ltc_ecc_import_point       0x3'bf59    0x1ac  Code  Gb  ltc_ecc_import_point.o [5]
ltc_ecc_is_point           0x3'cc29    0x118  Code  Gb  ltc_ecc_is_point.o [5]
ltc_ecc_is_point_at_infinity
                           0x3'5559     0xc4  Code  Gb  ltc_ecc_is_point_at_infinity.o [5]
ltc_ecc_map                0x3'd421    0x108  Code  Gb  ltc_ecc_map.o [5]
ltc_ecc_mul2add            0x4'de21    0x390  Code  Gb  ltc_ecc_mul2add.o [5]
ltc_ecc_mulmod             0x3'cd41    0x344  Code  Gb  ltc_ecc_mulmod_timing.o [5]
ltc_ecc_new_point          0x3'561d     0x34  Code  Gb  ltc_ecc_points.o [5]
ltc_ecc_projective_add_point
                           0x3'4e4d    0x67c  Code  Gb  ltc_ecc_projective_add_point.o [5]
ltc_ecc_projective_dbl_point
                           0x3'56f9    0x4d0  Code  Gb  ltc_ecc_projective_dbl_point.o [5]
ltc_ecc_set_point_xyz      0x3'566d     0x44  Code  Gb  ltc_ecc_points.o [5]
ltc_ecc_verify_key         0x3'c105     0xd0  Code  Gb  ltc_ecc_verify_key.o [5]
ltc_init_multi             0x3'54c9     0x44  Code  Gb  multi.o [5]
ltc_mp                  0x1002'3150     0xd4  Data  Gb  crypt_ltc_mp_descriptor.o [5]
ltm_desc                   0x5'434c     0xd4  Data  Gb  ltm_desc.o [5]
ltm_prime_tab              0x4'bd08    0x400  Data  Gb  bn_prime_tab.o [6]
ltm_rng                 0x1002'337c      0x4  Data  Gb  bn_mp_rand.o [6]
ltm_rng_callback        0x1002'3380      0x4  Data  Gb  bn_mp_rand.o [6]
main                       0x5'0b1d    0x278  Code  Gb  cardApp.o [1]
mcuctrl_fault_status       0x5'150b     0x3a  Code  Lc  am_hal_mcuctrl.o [4]
mds_mult                   0x2'8627     0x34  Code  Lc  twofish.o [5]
mds_tab                    0x2'57b0   0x1000  Data  Lc  twofish.o [5]
med3                       0x3'eb7d     0x50  Code  Lc  qsort.o [2]
mem_neq                    0x3'cbe9     0x3e  Code  Gb  mem_neq.o [5]
memchr                     0x3'6929           Code  Gb  memchr.o [8]
modi                       0x4'f691     0x1e  Code  Lc  ltm_desc.o [5]
montgomery_deinit          0x4'f753      0x8  Code  Lc  ltm_desc.o [5]
montgomery_normalization
                           0x4'f739      0xc  Code  Lc  ltm_desc.o [5]
montgomery_reduce          0x4'f745      0xe  Code  Lc  ltm_desc.o [5]
montgomery_setup           0x4'f703     0x36  Code  Lc  ltm_desc.o [5]
mp_2expt                   0x4'10a3     0x4e  Code  Gb  bn_mp_2expt.o [6]
mp_abs                     0x3'84eb     0x24  Code  Gb  bn_mp_abs.o [6]
mp_add                     0x3'78b5     0x50  Code  Gb  bn_mp_add.o [6]
mp_add_d                   0x3'740d    0x11a  Code  Gb  bn_mp_add_d.o [6]
mp_addmod                  0x4'fb03     0x52  Code  Gb  bn_mp_addmod.o [6]
mp_clamp                   0x3'7bed     0x2a  Code  Gb  bn_mp_clamp.o [6]
mp_clear                   0x3'7019     0x38  Code  Gb  bn_mp_clear.o [6]
mp_clear_multi             0x3'7ac9     0x22  Code  Gb  bn_mp_clear_multi.o [6]
mp_cmp                     0x3'721f     0x38  Code  Gb  bn_mp_cmp.o [6]
mp_cmp_d                   0x3'71e9     0x36  Code  Gb  bn_mp_cmp_d.o [6]
mp_cmp_mag                 0x3'853f     0x62  Code  Gb  bn_mp_cmp_mag.o [6]
mp_cnt_lsb                 0x3'7529     0x50  Code  Gb  bn_mp_cnt_lsb.o [6]
mp_copy                    0x3'867d     0x5c  Code  Gb  bn_mp_copy.o [6]
mp_count_bits              0x3'7713     0x2c  Code  Gb  bn_mp_count_bits.o [6]
mp_div                     0x3'8869    0x3bc  Code  Gb  bn_mp_div.o [6]
mp_div_2                   0x3'7905     0xa6  Code  Gb  bn_mp_div_2.o [6]
mp_div_2d                  0x3'7579     0xca  Code  Gb  bn_mp_div_2d.o [6]
mp_div_3                   0x3'95dd     0xec  Code  Gb  bn_mp_div_3.o [6]
mp_div_d                   0x4'ed0d    0x134  Code  Gb  bn_mp_div_d.o [6]
mp_dr_is_modulus           0x4'eee5     0x2e  Code  Gb  bn_mp_dr_is_modulus.o [6]
mp_dr_reduce               0x5'4421     0xd2  Code  Gb  bn_mp_dr_reduce.o [6]
mp_dr_setup                0x4'0f4f      0xc  Code  Gb  bn_mp_dr_setup.o [6]
mp_exch                    0x3'85a1     0x2a  Code  Gb  bn_mp_exch.o [6]
mp_exptmod                 0x4'eb43    0x10a  Code  Gb  bn_mp_exptmod.o [6]
mp_exptmod_fast            0x4'0af1    0x414  Code  Gb  bn_mp_exptmod_fast.o [6]
mp_gcd                     0x3'70b1    0x138  Code  Gb  bn_mp_gcd.o [6]
mp_get_bit                 0x3'7865     0x50  Code  Gb  bn_mp_get_bit.o [6]
mp_get_int                 0x4'f7d1     0x34  Code  Gb  bn_mp_get_int.o [6]
mp_grow                    0x3'86d9     0x4e  Code  Gb  bn_mp_grow.o [6]
mp_init                    0x3'6ed5     0x3a  Code  Gb  bn_mp_init.o [6]
mp_init_copy               0x3'850f     0x30  Code  Gb  bn_mp_init_copy.o [6]
mp_init_multi              0x3'7051     0x60  Code  Gb  bn_mp_init_multi.o [6]
mp_init_set                0x5'03e1     0x22  Code  Gb  bn_mp_init_set.o [6]
mp_init_set_int            0x5'0507     0x20  Code  Gb  bn_mp_init_set_int.o [6]
mp_init_size               0x3'8821     0x48  Code  Gb  bn_mp_init_size.o [6]
mp_invmod                  0x4'ee41     0x4e  Code  Gb  bn_mp_invmod.o [6]
mp_invmod_slow             0x4'e4e1    0x30e  Code  Gb  bn_mp_invmod_slow.o [6]
mp_is_square               0x5'0239    0x164  Code  Gb  bn_mp_is_square.o [6]
mp_jacobi                  0x4'eafb     0x32  Code  Gb  bn_mp_jacobi.o [6]
mp_karatsuba_mul           0x3'80cb    0x1f0  Code  Gb  bn_mp_karatsuba_mul.o [6]
mp_karatsuba_sqr           0x3'8fa5    0x15c  Code  Gb  bn_mp_karatsuba_sqr.o [6]
mp_kronecker               0x3'7259    0x1b4  Code  Gb  bn_mp_kronecker.o [6]
mp_kronecker::table        0x5'873c     0x20  Data  Lc  bn_mp_kronecker.o [6]
mp_lcm                     0x4'fa71     0x92  Code  Gb  bn_mp_lcm.o [6]
mp_lshd                    0x3'94a3     0x84  Code  Gb  bn_mp_lshd.o [6]
mp_mod                     0x3'773f     0x6e  Code  Gb  bn_mp_mod.o [6]
mp_mod_2d                  0x3'8727     0xac  Code  Gb  bn_mp_mod_2d.o [6]
mp_mod_d                   0x4'eb2d     0x16  Code  Gb  bn_mp_mod_d.o [6]
mp_montgomery_calc_normalization
                           0x4'0fc1     0x8e  Code  Gb  bn_mp_montgomery_calc_normalization.o [6]
mp_montgomery_reduce       0x4'fba7    0x132  Code  Gb  bn_mp_montgomery_reduce.o [6]
mp_montgomery_setup        0x4'0f05     0x4a  Code  Gb  bn_mp_montgomery_setup.o [6]
mp_mul                     0x3'6f59     0xc0  Code  Gb  bn_mp_mul.o [6]
mp_mul_2                   0x3'7669     0xaa  Code  Gb  bn_mp_mul_2.o [6]
mp_mul_2d                  0x3'7b09     0xe4  Code  Gb  bn_mp_mul_2d.o [6]
mp_mul_d                   0x3'9527     0xb6  Code  Gb  bn_mp_mul_d.o [6]
mp_mulmod                  0x4'104f     0x54  Code  Gb  bn_mp_mulmod.o [6]
mp_neg                     0x4'f797     0x3a  Code  Gb  bn_mp_neg.o [6]
mp_prime_is_divisible      0x5'039d     0x44  Code  Gb  bn_mp_prime_is_divisible.o [6]
mp_prime_is_prime          0x4'fce9    0x2ac  Code  Gb  bn_mp_prime_is_prime.o [6]
mp_prime_miller_rabin      0x5'0403    0x104  Code  Gb  bn_mp_prime_miller_rabin.o [6]
mp_prime_strong_lucas_selfridge
                           0x3'69e7    0x4e8  Code  Gb  bn_mp_prime_strong_lucas_selfridge.o [6]
mp_rand                    0x5'0001     0x7e  Code  Gb  bn_mp_rand.o [6]
mp_read_radix              0x4'f805     0xe0  Code  Gb  bn_mp_read_radix.o [6]
mp_read_unsigned_bin       0x4'fa0f     0x62  Code  Gb  bn_mp_read_unsigned_bin.o [6]
mp_reduce                  0x5'4181     0xf4  Code  Gb  bn_mp_reduce.o [6]
mp_reduce_2k               0x5'4cfd     0x86  Code  Gb  bn_mp_reduce_2k.o [6]
mp_reduce_2k_l             0x5'52ad     0x82  Code  Gb  bn_mp_reduce_2k_l.o [6]
mp_reduce_2k_setup         0x4'0f5b     0x66  Code  Gb  bn_mp_reduce_2k_setup.o [6]
mp_reduce_2k_setup_l       0x4'dddb     0x46  Code  Gb  bn_mp_reduce_2k_setup_l.o [6]
mp_reduce_is_2k            0x4'ef13     0x62  Code  Gb  bn_mp_reduce_is_2k.o [6]
mp_reduce_is_2k_l          0x4'ee8f     0x56  Code  Gb  bn_mp_reduce_is_2k_l.o [6]
mp_reduce_setup            0x4'ddb1     0x2a  Code  Gb  bn_mp_reduce_setup.o [6]
mp_rshd                    0x3'87d3     0x4e  Code  Gb  bn_mp_rshd.o [6]
mp_s_rmap                  0x5'96e0      0x4  Data  Gb  bn_mp_radix_smap.o [6]
mp_s_rmap_reverse          0x5'6654     0x58  Data  Gb  bn_mp_radix_smap.o [6]
mp_s_rmap_reverse_sz       0x5'96e4      0x4  Data  Gb  bn_mp_radix_smap.o [6]
mp_set                     0x3'7643     0x26  Code  Gb  bn_mp_set.o [6]
mp_set_int                 0x4'ec4d     0x48  Code  Gb  bn_mp_set_int.o [6]
mp_set_long                0x3'6f0f     0x48  Code  Gb  bn_mp_set_long.o [6]
mp_sqr                     0x3'77ad     0x60  Code  Gb  bn_mp_sqr.o [6]
mp_sqrmod                  0x4'ec95     0x4c  Code  Gb  bn_mp_sqrmod.o [6]
mp_sqrt                    0x5'0527     0xd6  Code  Gb  bn_mp_sqrt.o [6]
mp_sqrtmod_prime           0x4'e7ef    0x30c  Code  Gb  bn_mp_sqrtmod_prime.o [6]
mp_sub                     0x3'780d     0x58  Code  Gb  bn_mp_sub.o [6]
mp_sub_d                   0x3'79ab    0x11e  Code  Gb  bn_mp_sub_d.o [6]
mp_submod                  0x4'fb55     0x52  Code  Gb  bn_mp_submod.o [6]
mp_to_unsigned_bin         0x4'f9b5     0x5a  Code  Gb  bn_mp_to_unsigned_bin.o [6]
mp_toom_mul                0x3'7c17    0x4b4  Code  Gb  bn_mp_toom_mul.o [6]
mp_toom_sqr                0x3'8c25    0x380  Code  Gb  bn_mp_toom_sqr.o [6]
mp_toradix                 0x4'f8e5     0xac  Code  Gb  bn_mp_toradix.o [6]
mp_unsigned_bin_size       0x4'f991     0x24  Code  Gb  bn_mp_unsigned_bin_size.o [6]
mp_zero                    0x3'7aeb     0x1e  Code  Gb  bn_mp_zero.o [6]
mparams                 0x1002'3328     0x18  Data  Lc  dlmalloc.o [2]
mpi_to_ltc_codes           0x5'8b04     0x18  Data  Lc  ltm_desc.o [5]
mpi_to_ltc_error           0x4'f4ad     0x20  Code  Lc  ltm_desc.o [5]
mul                        0x4'f649      0xc  Code  Lc  ltm_desc.o [5]
muli                       0x4'f655      0xc  Code  Lc  ltm_desc.o [5]
mulmod                     0x4'f6df      0xc  Code  Lc  ltm_desc.o [5]
multi2_desc                0x5'5b34     0x68  Data  Gb  multi2.o [5]
multi2_done                0x3'fdad      0x2  Code  Gb  multi2.o [5]
multi2_ecb_decrypt         0x3'fc11     0x6e  Code  Gb  multi2.o [5]
multi2_ecb_encrypt         0x3'fba3     0x6e  Code  Gb  multi2.o [5]
multi2_keysize             0x3'fdaf     0x12  Code  Gb  multi2.o [5]
multi2_setup               0x3'fb01     0xa2  Code  Gb  multi2.o [5]
multi2_test                0x3'fc7f    0x11c  Code  Gb  multi2.o [5]
multi2_test::tests         0x5'5430     0x78  Data  Lc  multi2.o [5]
ndigits_in_hex             0x2'a7c9     0x28  Code  Lc  am_util_stdio.o [1]
ndigits_in_i64             0x2'a7af     0x1a  Code  Lc  am_util_stdio.o [1]
ndigits_in_u64             0x2'a77f     0x30  Code  Lc  am_util_stdio.o [1]
ndigs                      0x5'6a94     0x28  Data  Lc  iar_Stoulx.o [2]
neg                        0x4'f515      0xc  Code  Lc  ltm_desc.o [5]
nltap                      0x2'77dd     0x38  Code  Lc  sober128_stream.o [5]
noekeon_desc               0x5'5b9c     0x68  Data  Gb  noekeon.o [5]
noekeon_done               0x3'a335      0x2  Code  Gb  noekeon.o [5]
noekeon_ecb_decrypt        0x3'a0b1    0x17a  Code  Gb  noekeon.o [5]
noekeon_ecb_encrypt        0x3'9f45    0x16c  Code  Gb  noekeon.o [5]
noekeon_keysize            0x3'a337     0x12  Code  Gb  noekeon.o [5]
noekeon_setup              0x3'9e45    0x100  Code  Gb  noekeon.o [5]
noekeon_test               0x3'a22b     0xf8  Code  Gb  noekeon.o [5]
noekeon_test::tests        0x5'2c48    0x1a0  Data  Lc  noekeon.o [5]
out                        0x3'e931     0x18  Code  Lc  xprintftiny.o [2]
padbuffer                  0x2'a947     0x22  Code  Lc  am_util_stdio.o [1]
pc1                        0x5'793c     0x38  Data  Lc  des.o [5]
pc2                        0x5'7fe0     0x30  Data  Lc  des.o [5]
permute                    0x5'3b80    0x100  Data  Lc  rc2.o [5]
pi1                        0x3'f921      0xa  Code  Lc  multi2.o [5]
pi2                        0x3'f92b     0x1a  Code  Lc  multi2.o [5]
pi3                        0x3'f945     0x2a  Code  Lc  multi2.o [5]
pi4                        0x3'f96f     0x16  Code  Lc  multi2.o [5]
pincfg_equ                 0x4'd651     0x12  Code  Lc  am_hal_gpio.o [4]
pk_get_oid                 0x3'c9ed     0x30  Code  Gb  pk_get_oid.o [5]
pk_oid_cmp_with_asn1       0x3'c641     0x22  Code  Gb  pk_oid_cmp.o [5]
pk_oid_cmp_with_ulong      0x3'c5ef     0x52  Code  Gb  pk_oid_cmp.o [5]
pk_oid_num_to_str          0x3'beaf     0xaa  Code  Gb  pk_oid_str.o [5]
pk_oid_str_to_num          0x3'be09     0xa6  Code  Gb  pk_oid_str.o [5]
pka_oids                   0x5'871c     0x20  Data  Lc  pk_get_oid.o [5]
pkcs_1_mgf1                0x3'ca1d    0x11c  Code  Gb  pkcs_1_mgf1.o [5]
pkcs_1_oaep_decode         0x3'bad9    0x23c  Code  Gb  pkcs_1_oaep_decode.o [5]
pkcs_1_v1_5_decode         0x3'bd15     0xac  Code  Gb  pkcs_1_v1_5_decode.o [5]
prepend_alloc              0x2'13df    0x346  Code  Lc  dlmalloc.o [2]
printable_table            0x5'1e60    0x250  Data  Lc  der_length_printable_string.o [5]
prng_descriptor         0x1002'2828    0x550  Data  Gb  crypt_prng_descriptor.o [5]
prng_is_valid              0x3'b6fd     0x20  Code  Gb  crypt_prng_is_valid.o [5]
pui32Stack              0x1000'0000   0x4000  Data  Lc  startup_iar.o [1]
qsort                      0x3'ef23     0x18  Code  Gb  qsort.o [2]
rand                       0x3'c93d     0x94  Code  Gb  rand.o [2]
rand_bn_bits               0x3'c3e1     0x92  Code  Gb  rand_bn.o [5]
rand_bn_upto               0x3'c473     0x50  Code  Gb  rand_bn.o [5]
rand_prime                 0x5'2515     0xf0  Code  Gb  rand_prime.o [5]
rc                         0x5'6b30     0x4c  Data  Lc  anubis.o [5]
rc2_desc                   0x5'5c04     0x68  Data  Gb  rc2.o [5]
rc2_done                   0x4'06ad      0x2  Code  Gb  rc2.o [5]
rc2_ecb_decrypt            0x4'0443    0x120  Code  Gb  rc2.o [5]
rc2_ecb_encrypt            0x4'033b    0x108  Code  Gb  rc2.o [5]
rc2_keysize                0x4'06af     0x18  Code  Gb  rc2.o [5]
rc2_setup                  0x4'032d      0xe  Code  Gb  rc2.o [5]
rc2_setup_ex               0x4'024d     0xe0  Code  Gb  rc2.o [5]
rc2_test                   0x4'0563    0x138  Code  Gb  rc2.o [5]
rc2_test::tests            0x5'3158    0x118  Data  Lc  rc2.o [5]
rc4_add_entropy            0x4'c12b     0xa4  Code  Gb  rc4.o [5]
rc4_desc                   0x5'8390     0x28  Data  Gb  rc4.o [5]
rc4_done                   0x4'c273     0x10  Code  Gb  rc4.o [5]
rc4_export                 0x4'c283     0x28  Code  Gb  rc4.o [5]
rc4_import                 0x4'c2ab     0x3c  Code  Gb  rc4.o [5]
rc4_read                   0x4'c23b     0x38  Code  Gb  rc4.o [5]
rc4_ready                  0x4'c1cf     0x6c  Code  Gb  rc4.o [5]
rc4_start                  0x4'c109     0x22  Code  Gb  rc4.o [5]
rc4_stream_crypt           0x4'c547     0x7a  Code  Gb  rc4_stream.o [5]
rc4_stream_done            0x4'c5eb     0x14  Code  Gb  rc4_stream.o [5]
rc4_stream_keystream       0x4'c5c1     0x2a  Code  Gb  rc4_stream.o [5]
rc4_stream_setup           0x4'c4f5     0x52  Code  Gb  rc4_stream.o [5]
rc4_test                   0x4'c2e7    0x1f4  Code  Gb  rc4.o [5]
rc5_desc                   0x5'5c6c     0x68  Data  Gb  rc5.o [5]
rc5_done                   0x3'9e29      0x2  Code  Gb  rc5.o [5]
rc5_ecb_decrypt            0x3'9bbf    0x178  Code  Gb  rc5.o [5]
rc5_ecb_encrypt            0x3'9a4f    0x170  Code  Gb  rc5.o [5]
rc5_keysize                0x3'9e2b     0x18  Code  Gb  rc5.o [5]
rc5_setup                  0x3'98fd    0x152  Code  Gb  rc5.o [5]
rc5_test                   0x3'9d37     0xdc  Code  Gb  rc5.o [5]
rc5_test::tests            0x5'65f4     0x60  Data  Lc  rc5.o [5]
rc6_desc                   0x5'5cd4     0x68  Data  Gb  rc6.o [5]
rc6_done                   0x3'40fd      0x2  Code  Gb  rc6.o [5]
rc6_ecb_decrypt            0x3'3d75    0x28a  Code  Gb  rc6.o [5]
rc6_ecb_encrypt            0x3'3b2b    0x24a  Code  Gb  rc6.o [5]
rc6_keysize                0x3'40ff     0x18  Code  Gb  rc6.o [5]
rc6_setup                  0x3'39d9    0x152  Code  Gb  rc6.o [5]
rc6_test                   0x3'3fff     0xee  Code  Gb  rc6.o [5]
rc6_test::tests            0x5'45c0     0xcc  Data  Lc  rc6.o [5]
rcon                       0x5'82c8     0x28  Data  Lc  aes.o [5]
read_radix                 0x4'f5e1      0xc  Code  Lc  ltm_desc.o [5]
realloc                    0x5'0d95      0x4  Code  Gb  heaptramp0.o [2]
register_all_ciphers       0x3'a849    0x100  Code  Gb  crypt_register_all_ciphers.o [5]
register_all_hashes        0x3'a949     0x1c  Code  Gb  crypt_register_all_hashes.o [5]
register_all_prngs         0x3'a965     0x44  Code  Gb  crypt_register_all_prngs.o [5]
register_cipher            0x3'b5c5     0x64  Code  Gb  crypt_register_cipher.o [5]
register_hash              0x3'b629     0x60  Code  Gb  crypt_register_hash.o [5]
register_prng              0x3'b689     0x60  Code  Gb  crypt_register_prng.o [5]
rem_105                    0x5'5580     0x6c  Data  Lc  bn_mp_is_square.o [6]
rem_128                    0x5'53b0     0x80  Data  Lc  bn_mp_is_square.o [6]
rijndael_desc              0x5'5654     0x68  Data  Gb  aes.o [5]
rijndael_done              0x2'9ca9      0x2  Code  Gb  aes.o [5]
rijndael_ecb_decrypt       0x2'9823    0x33a  Code  Gb  aes.o [5]
rijndael_ecb_encrypt       0x2'94f9    0x32a  Code  Gb  aes.o [5]
rijndael_keysize           0x2'9cab     0x2e  Code  Gb  aes.o [5]
rijndael_setup             0x2'91a1    0x358  Code  Gb  aes.o [5]
rijndael_test              0x2'9b5d     0xf8  Code  Gb  aes.o [5]
rijndael_test::tests       0x5'44f4     0xcc  Data  Lc  aes.o [5]
rng_get_bytes              0x3'b74d     0x28  Code  Gb  rng_get_bytes.o [5]
rng_make_prng              0x3'a9e5     0xe8  Code  Gb  rng_make_prng.o [5]
rot3                       0x3'eac5     0x68  Code  Lc  qsort.o [2]
rot_128                    0x1'c5ad     0x36  Code  Lc  camellia.o [5]
rotate                     0x3'eb33     0x4a  Code  Lc  qsort.o [2]
rounds                     0x2'9e83    0x5e8  Code  Lc  kseed.o [5]
rs_mult                    0x2'865b     0x3a  Code  Lc  twofish.o [5]
rsa_decrypt_key_ex         0x3'ad9d     0xe8  Code  Gb  rsa_decrypt_key.o [5]
rsa_exptmod                0x4'f1bd    0x2f0  Code  Gb  rsa_exptmod.o [5]
rsa_free                   0x5'2605     0x34  Code  Gb  rsa_free.o [5]
rsa_import                 0x3'ab89    0x214  Code  Gb  rsa_import.o [5]
rsa_make_key               0x5'22fd    0x218  Code  Gb  rsa_make_key.o [5]
s128_diffuse               0x2'785d    0x53c  Code  Lc  sober128_stream.o [5]
s128_genkonst              0x2'7841     0x1c  Code  Lc  sober128_stream.o [5]
s128_reloadstate           0x2'782b     0x16  Code  Lc  sober128_stream.o [5]
s128_savestate             0x2'7815     0x16  Code  Lc  sober128_stream.o [5]
s_floor_ilog2              0x4'fcd9     0x10  Code  Lc  bn_mp_prime_is_prime.o [6]
s_gen_random               0x4'ffed     0x14  Code  Lc  bn_mp_rand.o [6]
s_is_power_of_two          0x4'ece1     0x2c  Code  Lc  bn_mp_div_d.o [6]
s_mp_add                   0x3'93ad     0xf6  Code  Gb  bn_s_mp_add.o [6]
s_mp_exptmod               0x4'da0d    0x3a4  Code  Gb  bn_s_mp_exptmod.o [6]
s_mp_mul_digs              0x3'83e1    0x10a  Code  Gb  bn_s_mp_mul_digs.o [6]
s_mp_mul_high_digs         0x5'2f29    0x11a  Code  Gb  bn_s_mp_mul_high_digs.o [6]
s_mp_mul_si                0x3'6981     0x66  Code  Lc  bn_mp_prime_strong_lucas_selfridge.o [6]
s_mp_sqr                   0x3'927b    0x132  Code  Gb  bn_s_mp_sqr.o [6]
s_mp_sub                   0x3'85cb     0xb2  Code  Gb  bn_s_mp_sub.o [6]
s_rand_digit               0x4'ffd9     0x14  Code  Lc  bn_mp_rand.o [6]
s_read_ltm_rng             0x4'ffa1     0x2e  Code  Lc  bn_mp_rand.o [6]
safer_128_keysize          0x2'bea7     0x12  Code  Gb  safer.o [5]
safer_64_keysize           0x2'be95     0x12  Code  Gb  safer.o [5]
safer_bias                 0x5'2638    0x210  Data  Lc  saferp.o [5]
safer_done                 0x2'bfeb      0x2  Code  Gb  safer.o [5]
safer_ebox                 0x5'3c80    0x100  Data  Lc  safer.o [5]
safer_ebox                 0x5'3e80    0x100  Data  Lc  saferp.o [5]
safer_ecb_decrypt          0x2'bcd1    0x1c4  Code  Gb  safer.o [5]
safer_ecb_encrypt          0x2'baed    0x1e4  Code  Gb  safer.o [5]
safer_k128_desc            0x5'5e0c     0x68  Data  Gb  safer.o [5]
safer_k128_setup           0x2'ba91     0x2e  Code  Gb  safer.o [5]
safer_k64_desc             0x5'5d3c     0x68  Data  Gb  safer.o [5]
safer_k64_setup            0x2'ba39     0x2c  Code  Gb  safer.o [5]
safer_k64_test             0x2'beb9     0x70  Code  Gb  safer.o [5]
safer_k64_test::k64_ct     0x5'9620      0x8  Data  Lc  safer.o [5]
safer_k64_test::k64_key
                           0x5'9618      0x8  Data  Lc  safer.o [5]
safer_k64_test::k64_pt     0x5'9610      0x8  Data  Lc  safer.o [5]
safer_lbox                 0x5'3d80    0x100  Data  Lc  safer.o [5]
safer_lbox                 0x5'3f80    0x100  Data  Lc  saferp.o [5]
safer_sk128_desc           0x5'5e74     0x68  Data  Gb  safer.o [5]
safer_sk128_setup          0x2'babf     0x2e  Code  Gb  safer.o [5]
safer_sk128_test           0x2'bfed     0xc2  Code  Gb  safer.o [5]
safer_sk128_test::sk128_ct
                           0x5'9648      0x8  Data  Lc  safer.o [5]
safer_sk128_test::sk128_key
                           0x5'92c0     0x10  Data  Lc  safer.o [5]
safer_sk128_test::sk128_pt
                           0x5'9640      0x8  Data  Lc  safer.o [5]
safer_sk64_desc            0x5'5da4     0x68  Data  Gb  safer.o [5]
safer_sk64_setup           0x2'ba65     0x2c  Code  Gb  safer.o [5]
safer_sk64_test            0x2'bf29     0xc2  Code  Gb  safer.o [5]
safer_sk64_test::sk64_ct
                           0x5'9638      0x8  Data  Lc  safer.o [5]
safer_sk64_test::sk64_key
                           0x5'9630      0x8  Data  Lc  safer.o [5]
safer_sk64_test::sk64_pt
                           0x5'9628      0x8  Data  Lc  safer.o [5]
saferp_desc                0x5'5edc     0x68  Data  Gb  saferp.o [5]
saferp_done                0x1'4411      0x2  Code  Gb  saferp.o [5]
saferp_ecb_decrypt         0x1'02fd   0x401a  Code  Gb  saferp.o [5]
saferp_ecb_encrypt           0xc2bd   0x4040  Code  Gb  saferp.o [5]
saferp_keysize             0x1'4413     0x2a  Code  Gb  saferp.o [5]
saferp_setup                 0xc101    0x1b4  Code  Gb  saferp.o [5]
saferp_setup::rounds       0x5'948c      0xc  Data  Lc  saferp.o [5]
saferp_test                0x1'4317     0xee  Code  Gb  saferp.o [5]
saferp_test::tests         0x5'468c     0xcc  Data  Lc  saferp.o [5]
sblPreV2                0x1000'46cc     0x30  Data  Lc  am_hal_security.o [4]
sbox                       0x5'4080    0x100  Data  Lc  skipjack.o [5]
sec_hand                0x1002'338c      0x4  Data  Lc  xfail_s.o [2]
segment_holding            0x2'135d     0x1a  Code  Lc  dlmalloc.o [2]
serpent_desc               0x5'5f44     0x68  Data  Gb  serpent.o [5]
serpent_done               0x2'4681      0x2  Code  Gb  serpent.o [5]
serpent_ecb_decrypt        0x2'4679      0x8  Code  Gb  serpent.o [5]
serpent_ecb_encrypt        0x2'4671      0x8  Code  Gb  serpent.o [5]
serpent_keysize            0x2'4683     0x2a  Code  Gb  serpent.o [5]
serpent_setup              0x2'464b     0x26  Code  Gb  serpent.o [5]
serpent_test               0x2'46ad     0xba  Code  Gb  serpent.o [5]
serpent_test::tests        0x5'1bfc    0x264  Data  Lc  serpent.o [5]
set_int                    0x4'f54b      0xc  Code  Lc  ltm_desc.o [5]
set_rand                   0x4'f78b      0xc  Code  Lc  ltm_desc.o [5]
setup                      0x3'f985     0xb4  Code  Lc  multi2.o [5]
setup_mix                  0x2'9169     0x38  Code  Lc  aes.o [5]
sha1_compress              0x3'47cd    0x3f2  Code  Lc  sha1.o [5]
sha1_desc                  0x5'60e4     0x68  Data  Gb  sha1.o [5]
sha1_done                  0x3'4caf    0x110  Code  Gb  sha1.o [5]
sha1_init                  0x3'4bbf     0x24  Code  Gb  sha1.o [5]
sha1_process               0x3'4be3     0xcc  Code  Gb  sha1.o [5]
sha1_test                  0x3'4dbf     0x60  Code  Gb  sha1.o [5]
sha1_test::tests           0x5'8010     0x30  Data  Lc  sha1.o [5]
sha256_compress            0x1'f2c9   0x1cc6  Code  Lc  sha256.o [5]
sha256_desc                0x5'55ec     0x68  Data  Gb  sha256.o [5]
sha256_done                0x2'10b1    0x110  Code  Gb  sha256.o [5]
sha256_init                0x2'0f9d     0x30  Code  Gb  sha256.o [5]
sha256_process             0x2'0fe5     0xcc  Code  Gb  sha256.o [5]
sha256_test                0x2'11c1     0x60  Code  Gb  sha256.o [5]
sha256_test::tests         0x5'6bc4     0x48  Data  Lc  sha256.o [5]
sigma                      0x5'96d8      0x4  Data  Lc  chacha_setup.o [5]
simple_strlen              0x2'a92f     0x18  Code  Lc  am_util_stdio.o [1]
skipjack_desc              0x5'5fac     0x68  Data  Gb  skipjack.o [5]
skipjack_done              0x4'14e5      0x2  Code  Gb  skipjack.o [5]
skipjack_ecb_decrypt       0x4'12f3     0xf2  Code  Gb  skipjack.o [5]
skipjack_ecb_encrypt       0x4'11f7     0xfc  Code  Gb  skipjack.o [5]
skipjack_keysize           0x4'14e7     0x18  Code  Gb  skipjack.o [5]
skipjack_setup             0x4'10f1     0x26  Code  Gb  skipjack.o [5]
skipjack_test              0x4'13e5     0xe8  Code  Gb  skipjack.o [5]
skipjack_test::tests       0x5'88d8     0x1c  Data  Lc  skipjack.o [5]
snprintf                   0x3'd371     0x44  Code  Gb  snprintf.o [2]
sober128_add_entropy       0x4'd2c5     0xb2  Code  Gb  sober128.o [5]
sober128_desc              0x5'83b8     0x28  Data  Gb  sober128.o [5]
sober128_done              0x4'd401     0x10  Code  Gb  sober128.o [5]
sober128_export            0x4'd411     0x28  Code  Gb  sober128.o [5]
sober128_import            0x4'd439     0x3c  Code  Gb  sober128.o [5]
sober128_read              0x4'd3c9     0x38  Code  Gb  sober128.o [5]
sober128_ready             0x4'd377     0x52  Code  Gb  sober128.o [5]
sober128_start             0x4'd2a1     0x24  Code  Gb  sober128.o [5]
sober128_stream_crypt      0x2'7e7f    0x678  Code  Gb  sober128_stream.o [5]
sober128_stream_done       0x2'852f     0x12  Code  Gb  sober128_stream.o [5]
sober128_stream_keystream
                           0x2'8505     0x2a  Code  Gb  sober128_stream.o [5]
sober128_stream_setiv      0x2'7e27     0x58  Code  Gb  sober128_stream.o [5]
sober128_stream_setup      0x2'7d99     0x8e  Code  Gb  sober128_stream.o [5]
sober128_test              0x4'd475    0x1c4  Code  Gb  sober128.o [5]
sprng_add_entropy          0x5'4c69      0x4  Code  Gb  sprng.o [5]
sprng_desc                 0x5'83e0     0x28  Data  Gb  sprng.o [5]
sprng_done                 0x5'4c7b      0x4  Code  Gb  sprng.o [5]
sprng_export               0x5'4c7f      0x8  Code  Gb  sprng.o [5]
sprng_import               0x5'4c87      0x4  Code  Gb  sprng.o [5]
sprng_read                 0x5'4c71      0xa  Code  Gb  sprng.o [5]
sprng_ready                0x5'4c6d      0x4  Code  Gb  sprng.o [5]
sprng_start                0x5'4c65      0x4  Code  Gb  sprng.o [5]
sprng_test                 0x5'4c8b     0x6c  Code  Gb  sprng.o [5]
sqr                        0x4'f661      0xc  Code  Lc  ltm_desc.o [5]
sqrmod                     0x4'f6eb      0xc  Code  Lc  ltm_desc.o [5]
sqrtmod_prime              0x4'f66d      0xc  Code  Lc  ltm_desc.o [5]
sscanf                     0x3'b59d     0x28  Code  Gb  sscanf.o [2]
ssh_encode_sequence_multi
                           0x3'c709    0x234  Code  Gb  ssh_encode_sequence_multi.o [5]
stab                       0x5'48ec     0xc8  Data  Lc  rc5.o [5]
stab                       0x5'4a74     0xb0  Data  Lc  rc6.o [5]
strchr                     0x3'6701           Code  Gb  strchr.o [8]
strcmp                     0x3'b6e9           Code  Gb  strcmp.o [8]
strlen                     0x2'1325           Code  Gb  strlen.o [8]
strtol                     0x3'67d7      0x4  Code  Gb  iar_Stolx.o [2]
strtoul                    0x3'6921      0x2  Code  Gb  iar_Stoulx.o [2]
sub                        0x4'f631      0xc  Code  Lc  ltm_desc.o [5]
subi                       0x4'f63d      0xc  Code  Lc  ltm_desc.o [5]
submod                     0x4'f6d3      0xc  Code  Lc  ltm_desc.o [5]
swap                       0x3'ea6f     0x56  Code  Lc  qsort.o [2]
sys_alloc                  0x2'191d    0x164  Code  Lc  dlmalloc.o [2]
sys_trim                   0x2'1a81     0x64  Code  Lc  dlmalloc.o [2]
tag_constructed_map        0x5'877c     0x20  Data  Lc  der_decode_asn1_identifier.o [5]
tag_constructed_map_sz     0x5'96f8      0x4  Data  Lc  der_decode_asn1_identifier.o [5]
tau                        0x5'96dc      0x4  Data  Lc  chacha_setup.o [5]
teletex_table              0x4'cef0    0x3b0  Data  Lc  der_length_teletex_string.o [5]
tmalloc_large              0x2'1f97    0x386  Code  Lc  dlmalloc.o [2]
tmalloc_small              0x2'231d    0x200  Code  Lc  dlmalloc.o [2]
totrot                     0x5'91e0     0x10  Data  Lc  des.o [5]
toupper                    0x5'007f      0xc  Code  Gb  toupper.o [2]
try_realloc_chunk          0x2'2d15    0x318  Code  Lc  dlmalloc.o [2]
twoexpt                    0x4'f5d5      0xc  Code  Lc  ltm_desc.o [5]
twofish_desc               0x5'6014     0x68  Data  Gb  twofish.o [5]
twofish_done               0x2'9139      0x2  Code  Gb  twofish.o [5]
twofish_ecb_decrypt        0x2'8df5    0x23c  Code  Gb  twofish.o [5]
twofish_ecb_encrypt        0x2'8bb9    0x23c  Code  Gb  twofish.o [5]
twofish_keysize            0x2'913b     0x2e  Code  Gb  twofish.o [5]
twofish_setup              0x2'87e5    0x3d4  Code  Gb  twofish.o [5]
twofish_test               0x2'9031     0xee  Code  Gb  twofish.o [5]
twofish_test::tests        0x5'4758     0xcc  Data  Lc  twofish.o [5]
uint64_to_hexstr           0x2'a8b7     0x78  Code  Lc  am_util_stdio.o [1]
uint64_to_str              0x2'a839     0x7e  Code  Lc  am_util_stdio.o [1]
unsigned_read              0x4'f60d      0xc  Code  Lc  ltm_desc.o [5]
unsigned_size              0x4'f5f9      0x8  Code  Lc  ltm_desc.o [5]
unsigned_write             0x4'f601      0xc  Code  Lc  ltm_desc.o [5]
write_radix                0x4'f5ed      0xc  Code  Lc  ltm_desc.o [5]
x509_decode_subject_public_key_info
                           0x3'b775    0x238  Code  Gb  x509_decode_subject_public_key_info.o [5]
xtea_desc                  0x5'607c     0x68  Data  Gb  xtea.o [5]
xtea_done                  0x4'c9b5      0x2  Code  Gb  xtea.o [5]
xtea_ecb_decrypt           0x4'c7b1    0x10c  Code  Gb  xtea.o [5]
xtea_ecb_encrypt           0x4'c6a9    0x108  Code  Gb  xtea.o [5]
xtea_keysize               0x4'c9b7     0x12  Code  Gb  xtea.o [5]
xtea_setup                 0x4'c601     0xa8  Code  Gb  xtea.o [5]
xtea_test                  0x4'c8bd     0xe6  Code  Gb  xtea.o [5]
xtea_test::tests           0x5'2de8    0x140  Data  Lc  xtea.o [5]
yaaLen                  0x1000'46a0      0x4  Data  Gb  hxsc_memmgr.o [1]
yarrow_add_entropy         0x5'16b7     0x80  Code  Gb  yarrow.o [5]
yarrow_desc                0x5'8408     0x28  Data  Gb  yarrow.o [5]
yarrow_done                0x5'17ef     0x12  Code  Gb  yarrow.o [5]
yarrow_export              0x5'1801     0x28  Code  Gb  yarrow.o [5]
yarrow_import              0x5'1829     0x3c  Code  Gb  yarrow.o [5]
yarrow_prng             0x1001'ed98   0x1ef0  Data  Gb  hxsc_crypto.o [1]
yarrow_read                0x5'17a9     0x46  Code  Gb  yarrow.o [5]
yarrow_ready               0x5'1737     0x72  Code  Gb  yarrow.o [5]
yarrow_start               0x5'166d     0x4a  Code  Gb  yarrow.o [5]
yarrow_test                0x5'1865     0x6a  Code  Gb  yarrow.o [5]
zeromem                    0x1'f29d     0x12  Code  Gb  zeromem.o [5]


[1] = D:\ESSEK_WORKSPACES\bsd17.1_B\evb_emb\hxcard\Evb\cardApp\iar\bin
[2] = dl7M_tln.a
[3] = libam_bsp.a
[4] = libam_hal.a
[5] = libtomcrypt.a
[6] = libtommath.a
[7] = m7M_tls.a
[8] = rt7M_tl.a
[9] = shb_l.a

  181 589 bytes of readonly  code memory
  137 178 bytes of readonly  data memory
  144 273 bytes of readwrite data memory

Errors: none
Warnings: none
